{
  "contractName": "_BenevoToken",
  "abi": [
    {
      "constant": true,
      "inputs": [],
      "name": "name",
      "outputs": [
        {
          "name": "",
          "type": "string"
        }
      ],
      "payable": false,
      "stateMutability": "view",
      "type": "function"
    },
    {
      "constant": true,
      "inputs": [],
      "name": "lastRewardEthBlockNumber",
      "outputs": [
        {
          "name": "",
          "type": "uint256"
        }
      ],
      "payable": false,
      "stateMutability": "view",
      "type": "function"
    },
    {
      "constant": true,
      "inputs": [],
      "name": "rewardEra",
      "outputs": [
        {
          "name": "",
          "type": "uint256"
        }
      ],
      "payable": false,
      "stateMutability": "view",
      "type": "function"
    },
    {
      "constant": true,
      "inputs": [],
      "name": "decimals",
      "outputs": [
        {
          "name": "",
          "type": "uint8"
        }
      ],
      "payable": false,
      "stateMutability": "view",
      "type": "function"
    },
    {
      "constant": true,
      "inputs": [],
      "name": "_totalSupply",
      "outputs": [
        {
          "name": "",
          "type": "uint256"
        }
      ],
      "payable": false,
      "stateMutability": "view",
      "type": "function"
    },
    {
      "constant": true,
      "inputs": [],
      "name": "maxSupplyForEra",
      "outputs": [
        {
          "name": "",
          "type": "uint256"
        }
      ],
      "payable": false,
      "stateMutability": "view",
      "type": "function"
    },
    {
      "constant": true,
      "inputs": [],
      "name": "tokensMinted",
      "outputs": [
        {
          "name": "",
          "type": "uint256"
        }
      ],
      "payable": false,
      "stateMutability": "view",
      "type": "function"
    },
    {
      "constant": true,
      "inputs": [],
      "name": "lastRewardTo",
      "outputs": [
        {
          "name": "",
          "type": "address"
        }
      ],
      "payable": false,
      "stateMutability": "view",
      "type": "function"
    },
    {
      "constant": false,
      "inputs": [],
      "name": "renounceOwnership",
      "outputs": [],
      "payable": false,
      "stateMutability": "nonpayable",
      "type": "function"
    },
    {
      "constant": true,
      "inputs": [],
      "name": "epochCount",
      "outputs": [
        {
          "name": "",
          "type": "uint256"
        }
      ],
      "payable": false,
      "stateMutability": "view",
      "type": "function"
    },
    {
      "constant": true,
      "inputs": [],
      "name": "_MAXIMUM_TARGET",
      "outputs": [
        {
          "name": "",
          "type": "uint256"
        }
      ],
      "payable": false,
      "stateMutability": "view",
      "type": "function"
    },
    {
      "constant": true,
      "inputs": [],
      "name": "miningTarget",
      "outputs": [
        {
          "name": "",
          "type": "uint256"
        }
      ],
      "payable": false,
      "stateMutability": "view",
      "type": "function"
    },
    {
      "constant": true,
      "inputs": [],
      "name": "challengeNumber",
      "outputs": [
        {
          "name": "",
          "type": "bytes32"
        }
      ],
      "payable": false,
      "stateMutability": "view",
      "type": "function"
    },
    {
      "constant": true,
      "inputs": [],
      "name": "owner",
      "outputs": [
        {
          "name": "",
          "type": "address"
        }
      ],
      "payable": false,
      "stateMutability": "view",
      "type": "function"
    },
    {
      "constant": true,
      "inputs": [],
      "name": "symbol",
      "outputs": [
        {
          "name": "",
          "type": "string"
        }
      ],
      "payable": false,
      "stateMutability": "view",
      "type": "function"
    },
    {
      "constant": true,
      "inputs": [],
      "name": "_BLOCKS_PER_READJUSTMENT",
      "outputs": [
        {
          "name": "",
          "type": "uint256"
        }
      ],
      "payable": false,
      "stateMutability": "view",
      "type": "function"
    },
    {
      "constant": true,
      "inputs": [],
      "name": "lastRewardAmount",
      "outputs": [
        {
          "name": "",
          "type": "uint256"
        }
      ],
      "payable": false,
      "stateMutability": "view",
      "type": "function"
    },
    {
      "constant": true,
      "inputs": [],
      "name": "latestDifficultyPeriodStarted",
      "outputs": [
        {
          "name": "",
          "type": "uint256"
        }
      ],
      "payable": false,
      "stateMutability": "view",
      "type": "function"
    },
    {
      "constant": true,
      "inputs": [],
      "name": "_MINIMUM_TARGET",
      "outputs": [
        {
          "name": "",
          "type": "uint256"
        }
      ],
      "payable": false,
      "stateMutability": "view",
      "type": "function"
    },
    {
      "constant": false,
      "inputs": [
        {
          "name": "_newOwner",
          "type": "address"
        }
      ],
      "name": "transferOwnership",
      "outputs": [],
      "payable": false,
      "stateMutability": "nonpayable",
      "type": "function"
    },
    {
      "inputs": [],
      "payable": false,
      "stateMutability": "nonpayable",
      "type": "constructor"
    },
    {
      "payable": true,
      "stateMutability": "payable",
      "type": "fallback"
    },
    {
      "anonymous": false,
      "inputs": [
        {
          "indexed": true,
          "name": "from",
          "type": "address"
        },
        {
          "indexed": false,
          "name": "reward_amount",
          "type": "uint256"
        },
        {
          "indexed": false,
          "name": "epochCount",
          "type": "uint256"
        },
        {
          "indexed": false,
          "name": "newChallengeNumber",
          "type": "bytes32"
        }
      ],
      "name": "Mint",
      "type": "event"
    },
    {
      "anonymous": false,
      "inputs": [
        {
          "indexed": true,
          "name": "previousOwner",
          "type": "address"
        }
      ],
      "name": "OwnershipRenounced",
      "type": "event"
    },
    {
      "anonymous": false,
      "inputs": [
        {
          "indexed": true,
          "name": "previousOwner",
          "type": "address"
        },
        {
          "indexed": true,
          "name": "newOwner",
          "type": "address"
        }
      ],
      "name": "OwnershipTransferred",
      "type": "event"
    },
    {
      "anonymous": false,
      "inputs": [
        {
          "indexed": true,
          "name": "from",
          "type": "address"
        },
        {
          "indexed": true,
          "name": "to",
          "type": "address"
        },
        {
          "indexed": false,
          "name": "tokens",
          "type": "uint256"
        }
      ],
      "name": "Transfer",
      "type": "event"
    },
    {
      "anonymous": false,
      "inputs": [
        {
          "indexed": true,
          "name": "tokenOwner",
          "type": "address"
        },
        {
          "indexed": true,
          "name": "spender",
          "type": "address"
        },
        {
          "indexed": false,
          "name": "tokens",
          "type": "uint256"
        }
      ],
      "name": "Approval",
      "type": "event"
    },
    {
      "constant": false,
      "inputs": [
        {
          "name": "nonce",
          "type": "uint256"
        },
        {
          "name": "challenge_digest",
          "type": "bytes32"
        }
      ],
      "name": "mint",
      "outputs": [
        {
          "name": "success",
          "type": "bool"
        }
      ],
      "payable": false,
      "stateMutability": "nonpayable",
      "type": "function"
    },
    {
      "constant": true,
      "inputs": [],
      "name": "getChallengeNumber",
      "outputs": [
        {
          "name": "",
          "type": "bytes32"
        }
      ],
      "payable": false,
      "stateMutability": "view",
      "type": "function"
    },
    {
      "constant": true,
      "inputs": [],
      "name": "getMiningDifficulty",
      "outputs": [
        {
          "name": "",
          "type": "uint256"
        }
      ],
      "payable": false,
      "stateMutability": "view",
      "type": "function"
    },
    {
      "constant": true,
      "inputs": [],
      "name": "getMiningTarget",
      "outputs": [
        {
          "name": "",
          "type": "uint256"
        }
      ],
      "payable": false,
      "stateMutability": "view",
      "type": "function"
    },
    {
      "constant": true,
      "inputs": [],
      "name": "getMiningReward",
      "outputs": [
        {
          "name": "",
          "type": "uint256"
        }
      ],
      "payable": false,
      "stateMutability": "view",
      "type": "function"
    },
    {
      "constant": true,
      "inputs": [
        {
          "name": "nonce",
          "type": "uint256"
        },
        {
          "name": "challenge_digest",
          "type": "bytes32"
        },
        {
          "name": "challenge_number",
          "type": "bytes32"
        }
      ],
      "name": "getMintDigest",
      "outputs": [
        {
          "name": "digesttest",
          "type": "bytes32"
        }
      ],
      "payable": false,
      "stateMutability": "view",
      "type": "function"
    },
    {
      "constant": true,
      "inputs": [
        {
          "name": "nonce",
          "type": "uint256"
        },
        {
          "name": "challenge_digest",
          "type": "bytes32"
        },
        {
          "name": "challenge_number",
          "type": "bytes32"
        },
        {
          "name": "testTarget",
          "type": "uint256"
        }
      ],
      "name": "checkMintSolution",
      "outputs": [
        {
          "name": "success",
          "type": "bool"
        }
      ],
      "payable": false,
      "stateMutability": "view",
      "type": "function"
    },
    {
      "constant": true,
      "inputs": [],
      "name": "totalSupply",
      "outputs": [
        {
          "name": "",
          "type": "uint256"
        }
      ],
      "payable": false,
      "stateMutability": "view",
      "type": "function"
    },
    {
      "constant": true,
      "inputs": [
        {
          "name": "tokenOwner",
          "type": "address"
        }
      ],
      "name": "balanceOf",
      "outputs": [
        {
          "name": "balance",
          "type": "uint256"
        }
      ],
      "payable": false,
      "stateMutability": "view",
      "type": "function"
    },
    {
      "constant": false,
      "inputs": [
        {
          "name": "to",
          "type": "address"
        },
        {
          "name": "tokens",
          "type": "uint256"
        }
      ],
      "name": "transfer",
      "outputs": [
        {
          "name": "success",
          "type": "bool"
        }
      ],
      "payable": false,
      "stateMutability": "nonpayable",
      "type": "function"
    },
    {
      "constant": false,
      "inputs": [
        {
          "name": "spender",
          "type": "address"
        },
        {
          "name": "tokens",
          "type": "uint256"
        }
      ],
      "name": "approve",
      "outputs": [
        {
          "name": "success",
          "type": "bool"
        }
      ],
      "payable": false,
      "stateMutability": "nonpayable",
      "type": "function"
    },
    {
      "constant": false,
      "inputs": [
        {
          "name": "from",
          "type": "address"
        },
        {
          "name": "to",
          "type": "address"
        },
        {
          "name": "tokens",
          "type": "uint256"
        }
      ],
      "name": "transferFrom",
      "outputs": [
        {
          "name": "success",
          "type": "bool"
        }
      ],
      "payable": false,
      "stateMutability": "nonpayable",
      "type": "function"
    },
    {
      "constant": true,
      "inputs": [
        {
          "name": "tokenOwner",
          "type": "address"
        },
        {
          "name": "spender",
          "type": "address"
        }
      ],
      "name": "allowance",
      "outputs": [
        {
          "name": "remaining",
          "type": "uint256"
        }
      ],
      "payable": false,
      "stateMutability": "view",
      "type": "function"
    },
    {
      "constant": false,
      "inputs": [
        {
          "name": "spender",
          "type": "address"
        },
        {
          "name": "tokens",
          "type": "uint256"
        },
        {
          "name": "data",
          "type": "bytes"
        }
      ],
      "name": "approveAndCall",
      "outputs": [
        {
          "name": "success",
          "type": "bool"
        }
      ],
      "payable": false,
      "stateMutability": "nonpayable",
      "type": "function"
    },
    {
      "constant": false,
      "inputs": [
        {
          "name": "tokenAddress",
          "type": "address"
        },
        {
          "name": "tokens",
          "type": "uint256"
        }
      ],
      "name": "transferAnyERC20Token",
      "outputs": [
        {
          "name": "success",
          "type": "bool"
        }
      ],
      "payable": false,
      "stateMutability": "nonpayable",
      "type": "function"
    },
    {
      "constant": false,
      "inputs": [],
      "name": "kill",
      "outputs": [],
      "payable": false,
      "stateMutability": "nonpayable",
      "type": "function"
    }
  ],
  "bytecode": "0x6080604052610400600755620100006008557c01000000000000000000000000000000000000000000000000000000006009556000601260006101000a81548160ff0219169083151502179055503480156200005a57600080fd5b50336000806101000a81548173ffffffffffffffffffffffffffffffffffffffff021916908373ffffffffffffffffffffffffffffffffffffffff1602179055506000809054906101000a900473ffffffffffffffffffffffffffffffffffffffff1673ffffffffffffffffffffffffffffffffffffffff163373ffffffffffffffffffffffffffffffffffffffff16141515620000f757600080fd5b6040805190810160405280600381526020017f424e5600000000000000000000000000000000000000000000000000000000008152506001908051906020019062000144929190620002d8565b506040805190810160405280600b81526020017f42656e65766f546f6b656e0000000000000000000000000000000000000000008152506002908051906020019062000192929190620002d8565b506008600360006101000a81548160ff021916908360ff160217905550600360009054906101000a900460ff1660ff16600a0a626ddd0002600481905550601260009054906101000a900460ff161562000254576040517f08c379a00000000000000000000000000000000000000000000000000000000081526004018080602001828103825260128152602001807f6d757374206e6f74206265206c6f636b6564000000000000000000000000000081525060200191505060405180910390fd5b6001601260006101000a81548160ff02191690831515021790555060006011819055506000600c81905550620002a56002600454620002c1640100000000026200258c179091906401000000009004565b600d81905550600954600a819055504360058190555062000387565b60008183811515620002cf57fe5b04905092915050565b828054600181600116156101000203166002900490600052602060002090601f016020900481019282601f106200031b57805160ff19168380011785556200034c565b828001600101855582156200034c579182015b828111156200034b5782518255916020019190600101906200032e565b5b5090506200035b91906200035f565b5090565b6200038491905b808211156200038057600081600090555060010162000366565b5090565b90565b61299780620003976000396000f3006080604052600436106101c2576000357c0100000000000000000000000000000000000000000000000000000000900463ffffffff16806306fdde0314610230578063095ea7b3146102c0578063163aa00d1461032557806317da485f146103505780631801fbe51461037b57806318160ddd146103ce57806323b872dd146103f95780632d38bf7a1461047e578063313ce567146104a957806332e99708146104da5780633eaaf86b1461050557806341c0e1b514610530578063490203a7146105475780634ef37628146105725780634fa972e1146105a55780636de9f32b146105d05780636fd396d6146105fb57806370a0823114610652578063715018a6146106a957806381269a56146106c0578063829965cc1461072b57806387a2a9d6146107565780638a769d35146107815780638ae0368b146107ac5780638da5cb5b146107df57806395d89b411461083657806397566aa0146108c6578063a9059cbb1461092b578063b5ade81b14610990578063bafedcaa146109bb578063cae9ca51146109e6578063cb9ae70714610a91578063dc39d06d14610abc578063dc6e9cf914610b21578063dd62ed3e14610b4c578063f2fde38b14610bc3575b6040517f08c379a00000000000000000000000000000000000000000000000000000000081526004018080602001828103825260108152602001807f446f6e277420616363657074204554480000000000000000000000000000000081525060200191505060405180910390fd5b34801561023c57600080fd5b50610245610c06565b6040518080602001828103825283818151815260200191508051906020019080838360005b8381101561028557808201518184015260208101905061026a565b50505050905090810190601f1680156102b25780820380516001836020036101000a031916815260200191505b509250505060405180910390f35b3480156102cc57600080fd5b5061030b600480360381019080803573ffffffffffffffffffffffffffffffffffffffff16906020019092919080359060200190929190505050610ca4565b604051808215151515815260200191505060405180910390f35b34801561033157600080fd5b5061033a610d96565b6040518082815260200191505060405180910390f35b34801561035c57600080fd5b50610365610d9c565b6040518082815260200191505060405180910390f35b34801561038757600080fd5b506103b4600480360381019080803590602001909291908035600019169060200190929190505050610dba565b604051808215151515815260200191505060405180910390f35b3480156103da57600080fd5b506103e3611263565b6040518082815260200191505060405180910390f35b34801561040557600080fd5b50610464600480360381019080803573ffffffffffffffffffffffffffffffffffffffff169060200190929190803573ffffffffffffffffffffffffffffffffffffffff169060200190929190803590602001909291905050506112ae565b604051808215151515815260200191505060405180910390f35b34801561048a57600080fd5b506104936116c7565b6040518082815260200191505060405180910390f35b3480156104b557600080fd5b506104be6116cd565b604051808260ff1660ff16815260200191505060405180910390f35b3480156104e657600080fd5b506104ef6116e0565b6040518082815260200191505060405180910390f35b34801561051157600080fd5b5061051a6116ea565b6040518082815260200191505060405180910390f35b34801561053c57600080fd5b506105456116f0565b005b34801561055357600080fd5b5061055c611785565b6040518082815260200191505060405180910390f35b34801561057e57600080fd5b506105876117bc565b60405180826000191660001916815260200191505060405180910390f35b3480156105b157600080fd5b506105ba6117c6565b6040518082815260200191505060405180910390f35b3480156105dc57600080fd5b506105e56117cc565b6040518082815260200191505060405180910390f35b34801561060757600080fd5b506106106117d2565b604051808273ffffffffffffffffffffffffffffffffffffffff1673ffffffffffffffffffffffffffffffffffffffff16815260200191505060405180910390f35b34801561065e57600080fd5b50610693600480360381019080803573ffffffffffffffffffffffffffffffffffffffff1690602001909291905050506117f8565b6040518082815260200191505060405180910390f35b3480156106b557600080fd5b506106be611841565b005b3480156106cc57600080fd5b50610711600480360381019080803590602001909291908035600019169060200190929190803560001916906020019092919080359060200190929190505050611943565b604051808215151515815260200191505060405180910390f35b34801561073757600080fd5b50610740611ad3565b6040518082815260200191505060405180910390f35b34801561076257600080fd5b5061076b611ad9565b6040518082815260200191505060405180910390f35b34801561078d57600080fd5b50610796611adf565b6040518082815260200191505060405180910390f35b3480156107b857600080fd5b506107c1611ae5565b60405180826000191660001916815260200191505060405180910390f35b3480156107eb57600080fd5b506107f4611aeb565b604051808273ffffffffffffffffffffffffffffffffffffffff1673ffffffffffffffffffffffffffffffffffffffff16815260200191505060405180910390f35b34801561084257600080fd5b5061084b611b10565b6040518080602001828103825283818151815260200191508051906020019080838360005b8381101561088b578082015181840152602081019050610870565b50505050905090810190601f1680156108b85780820380516001836020036101000a031916815260200191505b509250505060405180910390f35b3480156108d257600080fd5b5061090d6004803603810190808035906020019092919080356000191690602001909291908035600019169060200190929190505050611bae565b60405180826000191660001916815260200191505060405180910390f35b34801561093757600080fd5b50610976600480360381019080803573ffffffffffffffffffffffffffffffffffffffff16906020019092919080359060200190929190505050611c93565b604051808215151515815260200191505060405180910390f35b34801561099c57600080fd5b506109a5611f65565b6040518082815260200191505060405180910390f35b3480156109c757600080fd5b506109d0611f6b565b6040518082815260200191505060405180910390f35b3480156109f257600080fd5b50610a77600480360381019080803573ffffffffffffffffffffffffffffffffffffffff16906020019092919080359060200190929190803590602001908201803590602001908080601f0160208091040260200160405190810160405280939291908181526020018383808284378201915050505050509192919290505050611f71565b604051808215151515815260200191505060405180910390f35b348015610a9d57600080fd5b50610aa66121c0565b6040518082815260200191505060405180910390f35b348015610ac857600080fd5b50610b07600480360381019080803573ffffffffffffffffffffffffffffffffffffffff169060200190929190803590602001909291905050506121c6565b604051808215151515815260200191505060405180910390f35b348015610b2d57600080fd5b50610b3661232a565b6040518082815260200191505060405180910390f35b348015610b5857600080fd5b50610bad600480360381019080803573ffffffffffffffffffffffffffffffffffffffff169060200190929190803573ffffffffffffffffffffffffffffffffffffffff169060200190929190505050612330565b6040518082815260200191505060405180910390f35b348015610bcf57600080fd5b50610c04600480360381019080803573ffffffffffffffffffffffffffffffffffffffff169060200190929190505050612525565b005b60028054600181600116156101000203166002900480601f016020809104026020016040519081016040528092919081815260200182805460018160011615610100020316600290048015610c9c5780601f10610c7157610100808354040283529160200191610c9c565b820191906000526020600020905b815481529060010190602001808311610c7f57829003601f168201915b505050505081565b600081601560003373ffffffffffffffffffffffffffffffffffffffff1673ffffffffffffffffffffffffffffffffffffffff16815260200190815260200160002060008573ffffffffffffffffffffffffffffffffffffffff1673ffffffffffffffffffffffffffffffffffffffff168152602001908152602001600020819055508273ffffffffffffffffffffffffffffffffffffffff163373ffffffffffffffffffffffffffffffffffffffff167f8c5be1e5ebec7d5bd14f71427d1e84f3dd0314c0f7b2291e5b200ac8c7c3b925846040518082815260200191505060405180910390a36001905092915050565b60105481565b6000610db5600a5460095461258c90919063ffffffff16565b905090565b600080600080600b5433876040516020018084600019166000191681526020018373ffffffffffffffffffffffffffffffffffffffff1673ffffffffffffffffffffffffffffffffffffffff166c0100000000000000000000000002815260140182815260200193505050506040516020818303038152906040526040518082805190602001908083835b602083101515610e6a5780518252602082019150602081019050602083039250610e45565b6001836020036101000a0380198251168184511680821785525050505050509050019150506040518091039020925084600019168360001916141515610f3e576040517f08c379a00000000000000000000000000000000000000000000000000000000081526004018080602001828103825260288152602001807f6368616c6c656e676520646967657374206d757374206d61746368207468652081526020017f657870656374656400000000000000000000000000000000000000000000000081525060400191505060405180910390fd5b600a5483600190041115610fe0576040517f08c379a00000000000000000000000000000000000000000000000000000000081526004018080602001828103825260228152602001807f646967657374206d75737420626520736d616c6c6572207468616e207461726781526020017f657400000000000000000000000000000000000000000000000000000000000081525060400191505060405180910390fd5b60136000600b54600019166000191681526020019081526020016000205491508260136000600b54600019166000191681526020019081526020016000208160001916905550600060010282600019161415156110cb576040517f08c379a00000000000000000000000000000000000000000000000000000000081526004018080602001828103825260228152602001807f50726576656e74206177617264696e672073616d6520616e737765722074776981526020017f636500000000000000000000000000000000000000000000000000000000000081525060400191505060405180910390fd5b6110d3611785565b905061112781601460003373ffffffffffffffffffffffffffffffffffffffff1673ffffffffffffffffffffffffffffffffffffffff168152602001908152602001600020546125a290919063ffffffff16565b601460003373ffffffffffffffffffffffffffffffffffffffff1673ffffffffffffffffffffffffffffffffffffffff1681526020019081526020016000208190555061117f816011546125a290919063ffffffff16565b601181905550600d546011541115151561119557fe5b33600e60006101000a81548173ffffffffffffffffffffffffffffffffffffffff021916908373ffffffffffffffffffffffffffffffffffffffff16021790555080600f81905550436010819055506111ec6125be565b3373ffffffffffffffffffffffffffffffffffffffff167fcf6fbb9dcea7d07263ab4f5c3a92f53af33dffc421d9d121e1c74b307e68189d82600654600b54604051808481526020018381526020018260001916600019168152602001935050505060405180910390a26001935050505092915050565b6000601460008073ffffffffffffffffffffffffffffffffffffffff1673ffffffffffffffffffffffffffffffffffffffff1681526020019081526020016000205460045403905090565b60008360008173ffffffffffffffffffffffffffffffffffffffff1614151515611366576040517f08c379a00000000000000000000000000000000000000000000000000000000081526004018080602001828103825260278152602001807f6e6f7420612076616c6964206164647265737320287374617274696e6720667281526020017f6f6d20307830290000000000000000000000000000000000000000000000000081525060400191505060405180910390fd5b8360008173ffffffffffffffffffffffffffffffffffffffff161415151561141c576040517f08c379a00000000000000000000000000000000000000000000000000000000081526004018080602001828103825260278152602001807f6e6f7420612076616c6964206164647265737320287374617274696e6720667281526020017f6f6d20307830290000000000000000000000000000000000000000000000000081525060400191505060405180910390fd5b61146e84601460008973ffffffffffffffffffffffffffffffffffffffff1673ffffffffffffffffffffffffffffffffffffffff1681526020019081526020016000205461267390919063ffffffff16565b601460008873ffffffffffffffffffffffffffffffffffffffff1673ffffffffffffffffffffffffffffffffffffffff1681526020019081526020016000208190555061154084601560008973ffffffffffffffffffffffffffffffffffffffff1673ffffffffffffffffffffffffffffffffffffffff16815260200190815260200160002060003373ffffffffffffffffffffffffffffffffffffffff1673ffffffffffffffffffffffffffffffffffffffff1681526020019081526020016000205461267390919063ffffffff16565b601560008873ffffffffffffffffffffffffffffffffffffffff1673ffffffffffffffffffffffffffffffffffffffff16815260200190815260200160002060003373ffffffffffffffffffffffffffffffffffffffff1673ffffffffffffffffffffffffffffffffffffffff1681526020019081526020016000208190555061161284601460008873ffffffffffffffffffffffffffffffffffffffff1673ffffffffffffffffffffffffffffffffffffffff168152602001908152602001600020546125a290919063ffffffff16565b601460008773ffffffffffffffffffffffffffffffffffffffff1673ffffffffffffffffffffffffffffffffffffffff168152602001908152602001600020819055508473ffffffffffffffffffffffffffffffffffffffff168673ffffffffffffffffffffffffffffffffffffffff167fddf252ad1be2c89b69c2b068fc378daa952ba7f163c4a11628f55a4df523b3ef866040518082815260200191505060405180910390a36001925050509392505050565b600c5481565b600360009054906101000a900460ff1681565b6000600a54905090565b60045481565b6000809054906101000a900473ffffffffffffffffffffffffffffffffffffffff1673ffffffffffffffffffffffffffffffffffffffff163373ffffffffffffffffffffffffffffffffffffffff1614151561174b57600080fd5b6000809054906101000a900473ffffffffffffffffffffffffffffffffffffffff1673ffffffffffffffffffffffffffffffffffffffff16ff5b60006117b7600c5460020a600360009054906101000a900460ff1660ff16600a0a60320261258c90919063ffffffff16565b905090565b6000600b54905090565b600d5481565b60115481565b600e60009054906101000a900473ffffffffffffffffffffffffffffffffffffffff1681565b6000601460008373ffffffffffffffffffffffffffffffffffffffff1673ffffffffffffffffffffffffffffffffffffffff168152602001908152602001600020549050919050565b6000809054906101000a900473ffffffffffffffffffffffffffffffffffffffff1673ffffffffffffffffffffffffffffffffffffffff163373ffffffffffffffffffffffffffffffffffffffff1614151561189c57600080fd5b6000809054906101000a900473ffffffffffffffffffffffffffffffffffffffff1673ffffffffffffffffffffffffffffffffffffffff167ff8df31144d9c2f0f6b59d69b8b98abd5459d07f2742c4df920b25aae33c6482060405160405180910390a260008060006101000a81548173ffffffffffffffffffffffffffffffffffffffff021916908373ffffffffffffffffffffffffffffffffffffffff160217905550565b6000808333876040516020018084600019166000191681526020018373ffffffffffffffffffffffffffffffffffffffff1673ffffffffffffffffffffffffffffffffffffffff166c0100000000000000000000000002815260140182815260200193505050506040516020818303038152906040526040518082805190602001908083835b6020831015156119ee57805182526020820191506020810190506020830392506119c9565b6001836020036101000a038019825116818451168082178552505050505050905001915050604051809103902090508281600190041115611abd576040517f08c379a000000000000000000000000000000000000000000000000000000000815260040180806020018281038252602a8152602001807f646967657374206d757374206e6f7420626520686967686572207468616e207481526020017f657374205461726765740000000000000000000000000000000000000000000081525060400191505060405180910390fd5b8460001916816000191614915050949350505050565b60065481565b60095481565b600a5481565b600b5481565b6000809054906101000a900473ffffffffffffffffffffffffffffffffffffffff1681565b60018054600181600116156101000203166002900480601f016020809104026020016040519081016040528092919081815260200182805460018160011615610100020316600290048015611ba65780601f10611b7b57610100808354040283529160200191611ba6565b820191906000526020600020905b815481529060010190602001808311611b8957829003601f168201915b505050505081565b6000808233866040516020018084600019166000191681526020018373ffffffffffffffffffffffffffffffffffffffff1673ffffffffffffffffffffffffffffffffffffffff166c0100000000000000000000000002815260140182815260200193505050506040516020818303038152906040526040518082805190602001908083835b602083101515611c595780518252602082019150602081019050602083039250611c34565b6001836020036101000a03801982511681845116808217855250505050505090500191505060405180910390209050809150509392505050565b600060406004810160003690501015611d14576040517f08c379a00000000000000000000000000000000000000000000000000000000081526004018080602001828103825260118152602001807f6164647265737320746f6f2073686f727400000000000000000000000000000081525060200191505060405180910390fd5b8360008173ffffffffffffffffffffffffffffffffffffffff1614151515611dca576040517f08c379a00000000000000000000000000000000000000000000000000000000081526004018080602001828103825260278152602001807f6e6f7420612076616c6964206164647265737320287374617274696e6720667281526020017f6f6d20307830290000000000000000000000000000000000000000000000000081525060400191505060405180910390fd5b611e1c84601460003373ffffffffffffffffffffffffffffffffffffffff1673ffffffffffffffffffffffffffffffffffffffff1681526020019081526020016000205461267390919063ffffffff16565b601460003373ffffffffffffffffffffffffffffffffffffffff1673ffffffffffffffffffffffffffffffffffffffff16815260200190815260200160002081905550611eb184601460008873ffffffffffffffffffffffffffffffffffffffff1673ffffffffffffffffffffffffffffffffffffffff168152602001908152602001600020546125a290919063ffffffff16565b601460008773ffffffffffffffffffffffffffffffffffffffff1673ffffffffffffffffffffffffffffffffffffffff168152602001908152602001600020819055508473ffffffffffffffffffffffffffffffffffffffff163373ffffffffffffffffffffffffffffffffffffffff167fddf252ad1be2c89b69c2b068fc378daa952ba7f163c4a11628f55a4df523b3ef866040518082815260200191505060405180910390a360019250505092915050565b60075481565b600f5481565b600082601560003373ffffffffffffffffffffffffffffffffffffffff1673ffffffffffffffffffffffffffffffffffffffff16815260200190815260200160002060008673ffffffffffffffffffffffffffffffffffffffff1673ffffffffffffffffffffffffffffffffffffffff168152602001908152602001600020819055508373ffffffffffffffffffffffffffffffffffffffff163373ffffffffffffffffffffffffffffffffffffffff167f8c5be1e5ebec7d5bd14f71427d1e84f3dd0314c0f7b2291e5b200ac8c7c3b925856040518082815260200191505060405180910390a38373ffffffffffffffffffffffffffffffffffffffff16638f4ffcb1338530866040518563ffffffff167c0100000000000000000000000000000000000000000000000000000000028152600401808573ffffffffffffffffffffffffffffffffffffffff1673ffffffffffffffffffffffffffffffffffffffff1681526020018481526020018373ffffffffffffffffffffffffffffffffffffffff1673ffffffffffffffffffffffffffffffffffffffff16815260200180602001828103825283818151815260200191508051906020019080838360005b8381101561214e578082015181840152602081019050612133565b50505050905090810190601f16801561217b5780820380516001836020036101000a031916815260200191505b5095505050505050600060405180830381600087803b15801561219d57600080fd5b505af11580156121b1573d6000803e3d6000fd5b50505050600190509392505050565b60055481565b60008060009054906101000a900473ffffffffffffffffffffffffffffffffffffffff1673ffffffffffffffffffffffffffffffffffffffff163373ffffffffffffffffffffffffffffffffffffffff1614151561222357600080fd5b8273ffffffffffffffffffffffffffffffffffffffff1663a9059cbb6000809054906101000a900473ffffffffffffffffffffffffffffffffffffffff16846040518363ffffffff167c0100000000000000000000000000000000000000000000000000000000028152600401808373ffffffffffffffffffffffffffffffffffffffff1673ffffffffffffffffffffffffffffffffffffffff16815260200182815260200192505050602060405180830381600087803b1580156122e757600080fd5b505af11580156122fb573d6000803e3d6000fd5b505050506040513d602081101561231157600080fd5b8101908080519060200190929190505050905092915050565b60085481565b60008260008173ffffffffffffffffffffffffffffffffffffffff16141515156123e8576040517f08c379a00000000000000000000000000000000000000000000000000000000081526004018080602001828103825260278152602001807f6e6f7420612076616c6964206164647265737320287374617274696e6720667281526020017f6f6d20307830290000000000000000000000000000000000000000000000000081525060400191505060405180910390fd5b8260008173ffffffffffffffffffffffffffffffffffffffff161415151561249e576040517f08c379a00000000000000000000000000000000000000000000000000000000081526004018080602001828103825260278152602001807f6e6f7420612076616c6964206164647265737320287374617274696e6720667281526020017f6f6d20307830290000000000000000000000000000000000000000000000000081525060400191505060405180910390fd5b601560008673ffffffffffffffffffffffffffffffffffffffff1673ffffffffffffffffffffffffffffffffffffffff16815260200190815260200160002060008573ffffffffffffffffffffffffffffffffffffffff1673ffffffffffffffffffffffffffffffffffffffff168152602001908152602001600020549250505092915050565b6000809054906101000a900473ffffffffffffffffffffffffffffffffffffffff1673ffffffffffffffffffffffffffffffffffffffff163373ffffffffffffffffffffffffffffffffffffffff1614151561258057600080fd5b6125898161268c565b50565b6000818381151561259957fe5b04905092915050565b600081830190508281101515156125b557fe5b80905092915050565b600d546125dd6125cc611785565b6011546125a290919063ffffffff16565b1180156125ec57506027600c54105b156125fe576001600c5401600c819055505b61261b6001600c540160020a60045461258c90919063ffffffff16565b60045403600d8190555061263b60016006546125a290919063ffffffff16565b600681905550600060075460065481151561265257fe5b06141561266257612661612786565b5b6001430340600b8160001916905550565b600082821115151561268157fe5b818303905092915050565b600073ffffffffffffffffffffffffffffffffffffffff168173ffffffffffffffffffffffffffffffffffffffff16141515156126c857600080fd5b8073ffffffffffffffffffffffffffffffffffffffff166000809054906101000a900473ffffffffffffffffffffffffffffffffffffffff1673ffffffffffffffffffffffffffffffffffffffff167f8be0079c531659141344cd1fd0a4f28419497f9722a3daafe3b4186f6b6457e060405160405180910390a3806000806101000a81548173ffffffffffffffffffffffffffffffffffffffff021916908373ffffffffffffffffffffffffffffffffffffffff16021790555050565b6000806000806000806000600554430396506007549550603c8602945084871015612845576127d1876127c360648861291790919063ffffffff16565b61258c90919063ffffffff16565b93506127fb6103e86127ed60648761267390919063ffffffff16565b61294f90919063ffffffff16565b925061283a6128298461281b6107d0600a5461258c90919063ffffffff16565b61291790919063ffffffff16565b600a5461267390919063ffffffff16565b600a819055506128db565b61286b8561285d60648a61291790919063ffffffff16565b61258c90919063ffffffff16565b91506128956103e861288760648561267390919063ffffffff16565b61294f90919063ffffffff16565b90506128d46128c3826128b56107d0600a5461258c90919063ffffffff16565b61291790919063ffffffff16565b600a546125a290919063ffffffff16565b600a819055505b43600581905550600854600a5410156128f857600854600a819055505b600954600a54111561290e57600954600a819055505b50505050505050565b60008083141561292a5760009050612949565b818302905081838281151561293b57fe5b0414151561294557fe5b8090505b92915050565b60008183111561296157819050612965565b8290505b929150505600a165627a7a7230582060c85c223a5d3f6bc680c6562e701d5450ac10bb328c498f44f2f263d072cbb10029",
  "source": "pragma solidity ^0.4.19;\n\nimport \"node_modules/openzeppelin-solidity/contracts/ownership/Ownable.sol\";\nimport \"node_modules/openzeppelin-solidity/contracts/math/SafeMath.sol\";\n\n// Inspired by 0xBitcoin Token and EIP 918 Mineable Token Standard\n\nlibrary ExtendedMath {\n    //return the smaller of the two inputs (a or b)\n    function limitLessThan(uint a, uint b) internal pure returns (uint c) {\n        if(a > b) return b;\n        return a;\n    }\n}\n\ncontract ERC20Interface {\n    function totalSupply() public view returns (uint);\n    function balanceOf(address tokenOwner) public view returns (uint balance);\n    function allowance(address tokenOwner, address spender) public view returns (uint remaining);\n    function transfer(address to, uint tokens) public returns (bool success);\n    function approve(address spender, uint tokens) public returns (bool success);\n    function transferFrom(address from, address to, uint tokens) public returns (bool success);\n    event Transfer(address indexed from, address indexed to, uint tokens);\n    event Approval(address indexed tokenOwner, address indexed spender, uint tokens);\n}\n\n\ncontract ApproveAndCallFallBack {\n    function receiveApproval(address from, uint256 tokens, address token, bytes data) public;\n}\n/*\n//already included in Owned OpenZeppelin\ncontract Owned {\n    address public owner;\n    address public newOwner;\n    event OwnershipTransferred(address indexed _from, address indexed _to);\n\n    constructor() public {\n        owner = msg.sender;\n    }\n\n    modifier onlyOwner {\n        require(msg.sender == owner);\n        _;\n    }\n\n    function transferOwnership(address _newOwner) public onlyOwner {\n        newOwner = _newOwner;\n    }\n\n    function acceptOwnership() public {\n        require(msg.sender == newOwner);\n        emit OwnershipTransferred(owner, newOwner);\n        owner = newOwner;\n        newOwner = address(0);\n    }\n}\n*/\n\ncontract _BenevoToken is ERC20Interface, Ownable {\n    //all arithmetic operation in this contract uses Openzeppelin's SafeMath library\n    using SafeMath for uint;\n    using ExtendedMath for uint;\n    string public symbol;\n    string public  name;\n    uint8 public decimals;\n    uint public _totalSupply;\n    uint public latestDifficultyPeriodStarted;\n    //number of 'blocks' mined\n    uint public epochCount; \n    uint public _BLOCKS_PER_READJUSTMENT = 1024;\n    //Larger the target, easier to solve the block\n    uint public _MINIMUM_TARGET = 2**16;\n    uint public _MAXIMUM_TARGET = 2**224;\n    uint public miningTarget;\n    //generate a new one when a new reward is minted\n    bytes32 public challengeNumber;\n    uint public rewardEra;\n    uint public maxSupplyForEra;\n    address public lastRewardTo;\n    uint public lastRewardAmount;\n    uint public lastRewardEthBlockNumber;\n    uint public tokensMinted;\n    bool locked = false;\n   \n    mapping(bytes32 => bytes32) solutionForChallenge;\n    mapping(address => uint) balances;\n    mapping(address => mapping(address => uint)) allowed;\n    \n    event Mint(address indexed from, uint reward_amount, uint epochCount, bytes32 newChallengeNumber);\n\n    /**\n        @notice Prevent ERC20 short address attack.\n        @param size data length\n    */\n    modifier onlyPayloadSize(uint256 size) {\n        if(msg.data.length < size + 4) {\n            revert(\"address too short\");\n        }\n        _;\n    }\n\n    /**\n        @notice Accept from only valid addresses\n        @param _address Memory address\n    */\n    modifier onlyValidAddress(address _address) {\n        require(_address != 0x0, \"not a valid address (starting from 0x0)\");\n        _;\n    }\n\n    /*\n        @notice Deafault Constructor\n    */\n    \n    constructor() public onlyOwner {\n        symbol = \"BNV\";\n        name = \"BenevoToken\";\n        decimals = 8;\n        //population of the world on Aug 2018 (7.2 billion) divided by 1000\n        _totalSupply = 7200000 * 10**uint(decimals);\n        if(locked) revert(\"must not be locked\");\n        locked = true;\n        //All BenevoToken must be mined publicly. No ICO or pre-mine\n        tokensMinted = 0;\n        rewardEra = 0;\n        maxSupplyForEra = _totalSupply.div(2);\n        miningTarget = _MAXIMUM_TARGET;\n        latestDifficultyPeriodStarted = block.number;\n        //_startNewMiningEpoch();\n    }\n\n    function mint(uint256 nonce, bytes32 challenge_digest) \n    public returns (bool success) {\n        //the PoW must contain work that includes a recent ethereum block hash (challenge number) \n        //and the msg.sender's address to prevent MITM attacks\n        bytes32 digest = keccak256(abi.encodePacked(challengeNumber, msg.sender, nonce));\n        if (digest != challenge_digest) revert(\"challenge digest must match the expected\");\n        if(uint256(digest) > miningTarget) revert(\"digest must be smaller than target\");\n        //only allow one reward for each challenge\n        bytes32 solution = solutionForChallenge[challengeNumber];\n        solutionForChallenge[challengeNumber] = digest;\n        if(solution != 0x0) revert(\"Prevent awarding same answer twice\");\n        uint reward_amount = getMiningReward();\n        balances[msg.sender] = balances[msg.sender].add(reward_amount);\n        tokensMinted = tokensMinted.add(reward_amount);\n        //Cannot mint more tokens than there are\n        assert(tokensMinted <= maxSupplyForEra);\n\n        //set readonly diagnostics data\n        lastRewardTo = msg.sender;\n        lastRewardAmount = reward_amount;\n        lastRewardEthBlockNumber = block.number;\n        _startNewMiningEpoch();\n        emit Mint(msg.sender, reward_amount, epochCount, challengeNumber);\n        return true;\n    }\n\n    function _startNewMiningEpoch() internal {\n      //if max supply for the era will be exceeded next reward round then enter the new era before that happens\n      //40 is the final reward era, almost all tokens minted\n      //once the final era is reached, more tokens will not be given out because the assert function\n        if( tokensMinted.add(getMiningReward()) > maxSupplyForEra && rewardEra < 39) {\n            rewardEra = rewardEra + 1;\n        }\n      //set the next minted supply at which the era will change\n      // total supply is 720000000000000  because of 8 decimal places\n        maxSupplyForEra = _totalSupply - _totalSupply.div(2**(rewardEra + 1));\n        epochCount = epochCount.add(1);\n        //every so often, readjust difficulty. Dont readjust when deploying\n        if(epochCount % _BLOCKS_PER_READJUSTMENT == 0) {\n            _reAdjustDifficulty();\n        }\n      //make the latest ethereum block hash a part of the next challenge for PoW to prevent pre-mining future blocks\n      //do this last since this is a protection mechanism in the mint() function\n        challengeNumber = blockhash(block.number - 1);\n    }\n\n    //https://en.bitcoin.it/wiki/Difficulty#What_is_the_formula_for_difficulty.3F\n    //as of 2017 the bitcoin difficulty was up to 17 zeroes, it was only 8 in the early days\n\n    //readjust the target by 5 percent\n    function _reAdjustDifficulty() internal {\n        uint ethBlocksSinceLastDifficultyPeriod = block.number - latestDifficultyPeriodStarted;\n        //assume 360 ethereum blocks per hour\n        //we want miners to spend 10 minutes to mine each 'block', about 60 ethereum blocks = one 0xbitcoin epoch\n        uint epochsMined = _BLOCKS_PER_READJUSTMENT; //256\n        uint targetEthBlocksPerDiffPeriod = epochsMined * 60; //should be 60 times slower than ethereum\n\n        //if there were less eth blocks passed in time than expected\n        if( ethBlocksSinceLastDifficultyPeriod < targetEthBlocksPerDiffPeriod )\n        {\n            uint excess_block_pct = (targetEthBlocksPerDiffPeriod.mul(100)).div(ethBlocksSinceLastDifficultyPeriod);\n            uint excess_block_pct_extra = excess_block_pct.sub(100).limitLessThan(1000);\n            // If there were 5% more blocks mined than expected then this is 5.  If there were 100% more blocks mined than expected then this is 100.\n            //make it harder\n            miningTarget = miningTarget.sub(miningTarget.div(2000).mul(excess_block_pct_extra));   //by up to 50 %\n        }else{\n            uint shortage_block_pct = (ethBlocksSinceLastDifficultyPeriod.mul(100)).div(targetEthBlocksPerDiffPeriod);\n            uint shortage_block_pct_extra = shortage_block_pct.sub(100).limitLessThan(1000); //always between 0 and 1000\n            //make it easier\n            miningTarget = miningTarget.add(miningTarget.div(2000).mul(shortage_block_pct_extra));   //by up to 50 %\n        }\n\n        latestDifficultyPeriodStarted = block.number;\n        if(miningTarget < _MINIMUM_TARGET) {\n            miningTarget = _MINIMUM_TARGET;\n        }\n        if(miningTarget > _MAXIMUM_TARGET) {\n            miningTarget = _MAXIMUM_TARGET;\n        }\n    }\n\n\n    //this is a recent ethereum block hash, used to prevent pre-mining future blocks\n    function getChallengeNumber() public view returns (bytes32) {\n        return challengeNumber;\n    }\n\n    //the number of zeroes the digest of the PoW solution requires.  Auto adjusts\n    function getMiningDifficulty() public view returns (uint) {\n        return _MAXIMUM_TARGET.div(miningTarget);\n    }\n\n    function getMiningTarget() public view returns (uint) {\n        return miningTarget;\n    }\n\n    //7.2m coins total\n    //reward begins at 50 and is cut in half every reward era (as tokens are mined)\n    function getMiningReward() public view returns (uint) {\n        //once we get half way thru the coins, only get 25 per block\n         //every reward era, the reward amount halves.\n        return (50 * 10**uint(decimals) ).div(2**rewardEra) ;\n    }\n\n    //help debug mining software\n    function getMintDigest(uint256 nonce, bytes32 challenge_digest, bytes32 challenge_number) \n    public view returns (bytes32 digesttest) {\n        bytes32 digest = keccak256(abi.encodePacked(challenge_number,msg.sender,nonce));\n        return digest;\n    }\n\n    //help debug mining software\n    function checkMintSolution(uint256 nonce, bytes32 challenge_digest, bytes32 challenge_number, uint testTarget) \n    public view returns (bool success) {\n        bytes32 digest = keccak256(abi.encodePacked(challenge_number,msg.sender,nonce));\n        if(uint256(digest) > testTarget) revert(\"digest must not be higher than test Target\");\n        return (digest == challenge_digest);\n    }\n\n    function totalSupply() \n    public view returns (uint) {\n        return _totalSupply - balances[address(0)];\n    }\n\n    /**\n        @notice Get the token balance for the given address\n        @param tokenOwner Address whose balance should be queried\n        @return uint256 Represents the balance\n    */\n    function balanceOf(address tokenOwner) \n    public view returns (uint balance) {\n        return balances[tokenOwner];\n    }\n\n    /**\n        @notice Transfer token from token owner's account to 'to' account\n        Owner account must have sufficient balance\n        0 value transfers allowed\n        @param to Address to transfer token to\n        @param tokens Value to be transferred\n    */\n\n    function transfer(address to, uint tokens)\n    public \n    onlyPayloadSize(2 * 32)\n    onlyValidAddress(to)\n    returns (bool success) {\n        balances[msg.sender] = balances[msg.sender].sub(tokens);\n        balances[to] = balances[to].add(tokens);\n        emit Transfer(msg.sender, to, tokens);\n        return true;\n    }\n\n    /**\n        @notice Approve the 'spender address' to spend the specified amounts of\n        tokens on behalf of msg.sender or token owner\n        @param spender Spender of the funds\n        @param tokens Amounf of tokens to be spent\n    */\n\n    function approve(address spender, uint tokens) \n    public returns (bool success) {\n        allowed[msg.sender][spender] = tokens;\n        emit Approval(msg.sender, spender, tokens);\n        return true;\n    }\n\n    /**\n        @notice Transfer tokens from one account to another\n        0 value transfers allowed\n        @param from Source address, must have sufficient balance\n        @param to Target address, must have sufficient allowance\n        @param tokens Amount of tokens to be transferred\n    */\n\n    function transferFrom(address from, address to, uint tokens)\n    public\n    onlyValidAddress(from)\n    onlyValidAddress(to)\n    returns (bool success) {\n        balances[from] = balances[from].sub(tokens);\n        allowed[from][msg.sender] = allowed[from][msg.sender].sub(tokens);\n        balances[to] = balances[to].add(tokens);\n        emit Transfer(from, to, tokens);\n        return true;\n    }\n\n    /**\n        @notice returns the amount of tokens allowed by owner that can be \n        transferred to spender's account\n        @param tokenOwner Token owner's address\n        @param spender Spender's address\n        @return uint256 Amount of tokens available to the spender\n    */\n    \n    function allowance(address tokenOwner, address spender) \n    public\n    onlyValidAddress(tokenOwner) \n    onlyValidAddress(spender)\n    view returns (uint remaining) {\n        return allowed[tokenOwner][spender];\n    }\n\n    // Token owner can approve for `spender` to transferFrom(...) `tokens`\n    // from the token owner's account. The `spender` contract function\n    // `receiveApproval(...)` is then executed\n    function approveAndCall(address spender, uint tokens, bytes data) \n    public returns (bool success) {\n        allowed[msg.sender][spender] = tokens;\n        emit Approval(msg.sender, spender, tokens);\n        ApproveAndCallFallBack(spender).receiveApproval(msg.sender, tokens, this, data);\n        return true;\n    }\n\n    /**\n        @notice Eth payable fallback\n    */\n\n    function () public payable {\n        revert(\"Don't accept ETH\");\n    }\n\n    // Owner can transfer out any accidentally sent ERC20 tokens\n    function transferAnyERC20Token(address tokenAddress, uint tokens) \n    public onlyOwner returns (bool success) {\n        return ERC20Interface(tokenAddress).transfer(owner, tokens);\n    }\n\n    //kill the smart contract\n    function kill() public onlyOwner {\n        selfdestruct(owner);\n    }\n}",
  "sourcePath": "/home/masaki/Downloads/BenevoProjects/contracts/BenevoToken.sol",
  "compiler": {
    "name": "solc",
    "version": "0.4.24+commit.e67f0147.Emscripten.clang"
  },
  "schemaVersion": "2.0.1",
  "updatedAt": "2018-08-08T15:25:16.577Z"
}