{
  "contractName": "BenevoProjects",
  "abi": [
    {
      "constant": true,
      "inputs": [
        {
          "name": "",
          "type": "uint256"
        }
      ],
      "name": "projects",
      "outputs": [
        {
          "name": "id",
          "type": "uint256"
        },
        {
          "name": "name",
          "type": "string"
        },
        {
          "name": "goalAmount",
          "type": "uint256"
        },
        {
          "name": "currentAmount",
          "type": "uint256"
        },
        {
          "name": "currentBalance",
          "type": "uint256"
        },
        {
          "name": "ownerAddress",
          "type": "address"
        },
        {
          "name": "projectAddress",
          "type": "address"
        }
      ],
      "payable": false,
      "stateMutability": "view",
      "type": "function"
    },
    {
      "constant": false,
      "inputs": [],
      "name": "unpause",
      "outputs": [],
      "payable": false,
      "stateMutability": "nonpayable",
      "type": "function"
    },
    {
      "constant": true,
      "inputs": [],
      "name": "paused",
      "outputs": [
        {
          "name": "",
          "type": "bool"
        }
      ],
      "payable": false,
      "stateMutability": "view",
      "type": "function"
    },
    {
      "constant": false,
      "inputs": [],
      "name": "renounceOwnership",
      "outputs": [],
      "payable": false,
      "stateMutability": "nonpayable",
      "type": "function"
    },
    {
      "constant": false,
      "inputs": [],
      "name": "pause",
      "outputs": [],
      "payable": false,
      "stateMutability": "nonpayable",
      "type": "function"
    },
    {
      "constant": true,
      "inputs": [],
      "name": "owner",
      "outputs": [
        {
          "name": "",
          "type": "address"
        }
      ],
      "payable": false,
      "stateMutability": "view",
      "type": "function"
    },
    {
      "constant": true,
      "inputs": [],
      "name": "projectsCount",
      "outputs": [
        {
          "name": "",
          "type": "uint256"
        }
      ],
      "payable": false,
      "stateMutability": "view",
      "type": "function"
    },
    {
      "constant": false,
      "inputs": [
        {
          "name": "_newOwner",
          "type": "address"
        }
      ],
      "name": "transferOwnership",
      "outputs": [],
      "payable": false,
      "stateMutability": "nonpayable",
      "type": "function"
    },
    {
      "payable": true,
      "stateMutability": "payable",
      "type": "fallback"
    },
    {
      "anonymous": false,
      "inputs": [
        {
          "indexed": true,
          "name": "projectId",
          "type": "uint256"
        },
        {
          "indexed": true,
          "name": "name",
          "type": "string"
        },
        {
          "indexed": false,
          "name": "goalAmount",
          "type": "uint256"
        }
      ],
      "name": "NewProject",
      "type": "event"
    },
    {
      "anonymous": false,
      "inputs": [
        {
          "indexed": true,
          "name": "donor",
          "type": "address"
        },
        {
          "indexed": false,
          "name": "projectId",
          "type": "uint256"
        },
        {
          "indexed": false,
          "name": "amount",
          "type": "uint256"
        }
      ],
      "name": "Donated",
      "type": "event"
    },
    {
      "anonymous": false,
      "inputs": [
        {
          "indexed": true,
          "name": "from",
          "type": "address"
        },
        {
          "indexed": true,
          "name": "to",
          "type": "address"
        },
        {
          "indexed": false,
          "name": "tokens",
          "type": "uint256"
        }
      ],
      "name": "Withdraw",
      "type": "event"
    },
    {
      "anonymous": false,
      "inputs": [],
      "name": "Pause",
      "type": "event"
    },
    {
      "anonymous": false,
      "inputs": [],
      "name": "Unpause",
      "type": "event"
    },
    {
      "anonymous": false,
      "inputs": [
        {
          "indexed": true,
          "name": "previousOwner",
          "type": "address"
        }
      ],
      "name": "OwnershipRenounced",
      "type": "event"
    },
    {
      "anonymous": false,
      "inputs": [
        {
          "indexed": true,
          "name": "previousOwner",
          "type": "address"
        },
        {
          "indexed": true,
          "name": "newOwner",
          "type": "address"
        }
      ],
      "name": "OwnershipTransferred",
      "type": "event"
    },
    {
      "constant": false,
      "inputs": [
        {
          "name": "_id",
          "type": "uint256"
        },
        {
          "name": "amountToDonate",
          "type": "uint256"
        }
      ],
      "name": "donate",
      "outputs": [],
      "payable": false,
      "stateMutability": "nonpayable",
      "type": "function"
    },
    {
      "constant": false,
      "inputs": [
        {
          "name": "_projectId",
          "type": "uint256"
        },
        {
          "name": "_amountToWithdraw",
          "type": "uint256"
        }
      ],
      "name": "releaseDonation",
      "outputs": [
        {
          "name": "success",
          "type": "bool"
        }
      ],
      "payable": false,
      "stateMutability": "nonpayable",
      "type": "function"
    },
    {
      "constant": false,
      "inputs": [],
      "name": "kill",
      "outputs": [],
      "payable": false,
      "stateMutability": "nonpayable",
      "type": "function"
    }
  ],
  "bytecode": "0x608060405260008060146101000a81548160ff021916908315150217905550336000806101000a81548173ffffffffffffffffffffffffffffffffffffffff021916908373ffffffffffffffffffffffffffffffffffffffff160217905550610f438061006d6000396000f3006080604052600436106100af576000357c0100000000000000000000000000000000000000000000000000000000900463ffffffff1680630cdd53f61461011d578063107046bd146101545780633f4ba83a1461027c57806341c0e1b5146102935780635b09a602146102aa5780635c975abb146102f9578063715018a6146103285780638456cb591461033f5780638da5cb5b14610356578063c73b302e146103ad578063f2fde38b146103d8575b6040517f08c379a00000000000000000000000000000000000000000000000000000000081526004018080602001828103825260108152602001807f446f6e277420616363657074204554480000000000000000000000000000000081525060200191505060405180910390fd5b34801561012957600080fd5b50610152600480360381019080803590602001909291908035906020019092919050505061041b565b005b34801561016057600080fd5b5061017f600480360381019080803590602001909291905050506105aa565b60405180888152602001806020018781526020018681526020018581526020018473ffffffffffffffffffffffffffffffffffffffff1673ffffffffffffffffffffffffffffffffffffffff1681526020018373ffffffffffffffffffffffffffffffffffffffff1673ffffffffffffffffffffffffffffffffffffffff168152602001828103825288818151815260200191508051906020019080838360005b8381101561023b578082015181840152602081019050610220565b50505050905090810190601f1680156102685780820380516001836020036101000a031916815260200191505b509850505050505050505060405180910390f35b34801561028857600080fd5b506102916106c4565b005b34801561029f57600080fd5b506102a8610782565b005b3480156102b657600080fd5b506102df6004803603810190808035906020019092919080359060200190929190505050610817565b604051808215151515815260200191505060405180910390f35b34801561030557600080fd5b5061030e610b9d565b604051808215151515815260200191505060405180910390f35b34801561033457600080fd5b5061033d610bb0565b005b34801561034b57600080fd5b50610354610cb2565b005b34801561036257600080fd5b5061036b610d72565b604051808273ffffffffffffffffffffffffffffffffffffffff1673ffffffffffffffffffffffffffffffffffffffff16815260200191505060405180910390f35b3480156103b957600080fd5b506103c2610d97565b6040518082815260200191505060405180910390f35b3480156103e457600080fd5b50610419600480360381019080803573ffffffffffffffffffffffffffffffffffffffff169060200190929190505050610d9d565b005b60008060149054906101000a900460ff1615151561043857600080fd5b8073ffffffffffffffffffffffffffffffffffffffff166323b872dd336001600087815260200190815260200160002060060160009054906101000a900473ffffffffffffffffffffffffffffffffffffffff16856040518463ffffffff167c0100000000000000000000000000000000000000000000000000000000028152600401808473ffffffffffffffffffffffffffffffffffffffff1673ffffffffffffffffffffffffffffffffffffffff1681526020018373ffffffffffffffffffffffffffffffffffffffff1673ffffffffffffffffffffffffffffffffffffffff1681526020018281526020019350505050602060405180830381600087803b15801561054557600080fd5b505af1158015610559573d6000803e3d6000fd5b505050506040513d602081101561056f57600080fd5b810190808051906020019092919050505050816001600085815260200190815260200160002060030160008282540192505081905550505050565b6001602052806000526040600020600091509050806000015490806001018054600181600116156101000203166002900480601f01602080910402602001604051908101604052809291908181526020018280546001816001161561010002031660029004801561065c5780601f106106315761010080835404028352916020019161065c565b820191906000526020600020905b81548152906001019060200180831161063f57829003601f168201915b5050505050908060020154908060030154908060040154908060050160009054906101000a900473ffffffffffffffffffffffffffffffffffffffff16908060060160009054906101000a900473ffffffffffffffffffffffffffffffffffffffff16905087565b6000809054906101000a900473ffffffffffffffffffffffffffffffffffffffff1673ffffffffffffffffffffffffffffffffffffffff163373ffffffffffffffffffffffffffffffffffffffff1614151561071f57600080fd5b600060149054906101000a900460ff16151561073a57600080fd5b60008060146101000a81548160ff0219169083151502179055507f7805862f689e2f13df9f062ff482ad3ad112aca9e0847911ed832e158c525b3360405160405180910390a1565b6000809054906101000a900473ffffffffffffffffffffffffffffffffffffffff1673ffffffffffffffffffffffffffffffffffffffff163373ffffffffffffffffffffffffffffffffffffffff161415156107dd57600080fd5b6000809054906101000a900473ffffffffffffffffffffffffffffffffffffffff1673ffffffffffffffffffffffffffffffffffffffff16ff5b600080600060149054906101000a900460ff1615151561083657600080fd5b600160008581526020019081526020016000206003015483111515156108ea576040517f08c379a00000000000000000000000000000000000000000000000000000000081526004018080602001828103825260318152602001807f63616e6e6f74207769746864726177206d6f7265207468616e2063757272656e81526020017f742070726f6a6563742062616c616e636500000000000000000000000000000081525060400191505060405180910390fd5b6001600085815260200190815260200160002060050160009054906101000a900473ffffffffffffffffffffffffffffffffffffffff1673ffffffffffffffffffffffffffffffffffffffff163373ffffffffffffffffffffffffffffffffffffffff161415156109e9576040517f08c379a00000000000000000000000000000000000000000000000000000000081526004018080602001828103825260218152602001807f6f6e6c792070726f6a6563742063726561746f722063616e207769746864726181526020017f770000000000000000000000000000000000000000000000000000000000000081525060400191505060405180910390fd5b610a12836001600087815260200190815260200160002060030154610e0490919063ffffffff16565b508073ffffffffffffffffffffffffffffffffffffffff166323b872dd6001600087815260200190815260200160002060060160009054906101000a900473ffffffffffffffffffffffffffffffffffffffff166001600088815260200190815260200160002060050160009054906101000a900473ffffffffffffffffffffffffffffffffffffffff16866040518463ffffffff167c0100000000000000000000000000000000000000000000000000000000028152600401808473ffffffffffffffffffffffffffffffffffffffff1673ffffffffffffffffffffffffffffffffffffffff1681526020018373ffffffffffffffffffffffffffffffffffffffff1673ffffffffffffffffffffffffffffffffffffffff1681526020018281526020019350505050602060405180830381600087803b158015610b5657600080fd5b505af1158015610b6a573d6000803e3d6000fd5b505050506040513d6020811015610b8057600080fd5b810190808051906020019092919050505050600191505092915050565b600060149054906101000a900460ff1681565b6000809054906101000a900473ffffffffffffffffffffffffffffffffffffffff1673ffffffffffffffffffffffffffffffffffffffff163373ffffffffffffffffffffffffffffffffffffffff16141515610c0b57600080fd5b6000809054906101000a900473ffffffffffffffffffffffffffffffffffffffff1673ffffffffffffffffffffffffffffffffffffffff167ff8df31144d9c2f0f6b59d69b8b98abd5459d07f2742c4df920b25aae33c6482060405160405180910390a260008060006101000a81548173ffffffffffffffffffffffffffffffffffffffff021916908373ffffffffffffffffffffffffffffffffffffffff160217905550565b6000809054906101000a900473ffffffffffffffffffffffffffffffffffffffff1673ffffffffffffffffffffffffffffffffffffffff163373ffffffffffffffffffffffffffffffffffffffff16141515610d0d57600080fd5b600060149054906101000a900460ff16151515610d2957600080fd5b6001600060146101000a81548160ff0219169083151502179055507f6985a02210a168e66602d3235cb6db0e70f92b3ba4d376a33c0f3d9434bff62560405160405180910390a1565b6000809054906101000a900473ffffffffffffffffffffffffffffffffffffffff1681565b60025481565b6000809054906101000a900473ffffffffffffffffffffffffffffffffffffffff1673ffffffffffffffffffffffffffffffffffffffff163373ffffffffffffffffffffffffffffffffffffffff16141515610df857600080fd5b610e0181610e1d565b50565b6000828211151515610e1257fe5b818303905092915050565b600073ffffffffffffffffffffffffffffffffffffffff168173ffffffffffffffffffffffffffffffffffffffff1614151515610e5957600080fd5b8073ffffffffffffffffffffffffffffffffffffffff166000809054906101000a900473ffffffffffffffffffffffffffffffffffffffff1673ffffffffffffffffffffffffffffffffffffffff167f8be0079c531659141344cd1fd0a4f28419497f9722a3daafe3b4186f6b6457e060405160405180910390a3806000806101000a81548173ffffffffffffffffffffffffffffffffffffffff021916908373ffffffffffffffffffffffffffffffffffffffff160217905550505600a165627a7a723058207dc20ea039448fffdab2c6abf49e26a7d4d74d6cfebd21686abf5205d784760b0029",
  "source": "pragma solidity ^0.4.19;\n\nimport \"node_modules/openzeppelin-solidity/contracts/lifecycle/Pausable.sol\";\nimport \"contracts/BenevoToken.sol\";\nimport \"node_modules/openzeppelin-solidity/contracts/math/SafeMath.sol\";\n\n// pausable enables emergency stop\ncontract BenevoProjects is Pausable {\n\n    //all arithmetic operation in this contract uses Openzeppelin's SafeMath library\n    using SafeMath for uint;\n    \n    event NewProject(uint indexed projectId, string indexed name, uint goalAmount);\n    event Donated(address indexed donor, uint projectId, uint amount);\n    event Withdraw(address indexed from, address indexed to, uint tokens); \n\n    struct Project {\n        uint id;\n        string name;\n        uint goalAmount;\n        uint currentAmount;\n        uint currentBalance;\n        address ownerAddress;\n        address projectAddress;\n    }\n\n    mapping (uint => Project) public projects;\n\n    uint public projectsCount;\n\n    /** @dev Create a new project with a BenevoToken contractAccount\n      * @param _name The name of the project\n      * @param _goalAmount Goal amount of BenevoToken to be donated\n    */\n    \n    function _createProject(string _name, uint _goalAmount) private whenNotPaused returns(string){\n        projectsCount ++;\n        projects[projectsCount] = Project(projectsCount, _name, _goalAmount, 0, 0, msg.sender, address(ripemd160(abi.encodePacked(msg.sender))));\n        emit NewProject(projectsCount, _name, _goalAmount);\n        return _name;\n    }\n\n    //Donate BenevoToken to the project\n    function donate(uint _id, uint amountToDonate) public whenNotPaused {\n        _BenevoToken bnt;\n        bnt.transferFrom(msg.sender, projects[_id].projectAddress, amountToDonate);\n        projects[_id].currentAmount += amountToDonate;\n    }\n\n    /** @dev Release the escrowed donation to the project owner \n        @param _projectId Project ID\n        @param _amountToWithdraw Amount of BenevoToken to be released\n    */\n    function releaseDonation(uint _projectId, uint _amountToWithdraw) public whenNotPaused returns (bool success){\n        _BenevoToken bnt;\n        require(_amountToWithdraw <= projects[_projectId].currentAmount, \"cannot withdraw more than current project balance\");\n        require(msg.sender == projects[_projectId].ownerAddress, \"only project creator can withdraw\");\n        //Subtract withdraw amount before releasing token to prevent re-entrancy attack\n        projects[_projectId].currentAmount.sub(_amountToWithdraw);\n        bnt.transferFrom(projects[_projectId].projectAddress, projects[_projectId].ownerAddress, _amountToWithdraw);\n        return true;\n    }\n\n    /**\n        @notice Eth payable fallback\n    */\n\n    function () public payable {\n        revert(\"Don't accept ETH\");\n    }\n\n    //kill the smart contract\n    function kill() public onlyOwner {\n        selfdestruct(owner);\n    }\n}",
  "sourcePath": "/home/masaki/Downloads/BenevoProjects/contracts/BenevoProjects.sol",
  "compiler": {
    "name": "solc",
    "version": "0.4.24+commit.e67f0147.Emscripten.clang"
  },
  "schemaVersion": "2.0.1",
  "updatedAt": "2018-08-08T15:25:16.550Z"
}