{
  "contractName": "BenevoProjects",
  "abi": [
    {
      "constant": false,
      "inputs": [],
      "name": "unpause",
      "outputs": [],
      "payable": false,
      "stateMutability": "nonpayable",
      "type": "function"
    },
    {
      "constant": true,
      "inputs": [],
      "name": "paused",
      "outputs": [
        {
          "name": "",
          "type": "bool"
        }
      ],
      "payable": false,
      "stateMutability": "view",
      "type": "function"
    },
    {
      "constant": false,
      "inputs": [],
      "name": "renounceOwnership",
      "outputs": [],
      "payable": false,
      "stateMutability": "nonpayable",
      "type": "function"
    },
    {
      "constant": false,
      "inputs": [],
      "name": "pause",
      "outputs": [],
      "payable": false,
      "stateMutability": "nonpayable",
      "type": "function"
    },
    {
      "constant": true,
      "inputs": [],
      "name": "owner",
      "outputs": [
        {
          "name": "",
          "type": "address"
        }
      ],
      "payable": false,
      "stateMutability": "view",
      "type": "function"
    },
    {
      "constant": true,
      "inputs": [],
      "name": "projectsCount",
      "outputs": [
        {
          "name": "",
          "type": "uint256"
        }
      ],
      "payable": false,
      "stateMutability": "view",
      "type": "function"
    },
    {
      "constant": false,
      "inputs": [
        {
          "name": "_newOwner",
          "type": "address"
        }
      ],
      "name": "transferOwnership",
      "outputs": [],
      "payable": false,
      "stateMutability": "nonpayable",
      "type": "function"
    },
    {
      "inputs": [],
      "payable": false,
      "stateMutability": "nonpayable",
      "type": "constructor"
    },
    {
      "payable": true,
      "stateMutability": "payable",
      "type": "fallback"
    },
    {
      "anonymous": false,
      "inputs": [
        {
          "indexed": true,
          "name": "projectId",
          "type": "uint256"
        },
        {
          "indexed": true,
          "name": "name",
          "type": "string"
        },
        {
          "indexed": false,
          "name": "goalAmount",
          "type": "uint256"
        },
        {
          "indexed": false,
          "name": "owner",
          "type": "address"
        }
      ],
      "name": "NewProject",
      "type": "event"
    },
    {
      "anonymous": false,
      "inputs": [
        {
          "indexed": true,
          "name": "donor",
          "type": "address"
        },
        {
          "indexed": false,
          "name": "projectId",
          "type": "uint256"
        },
        {
          "indexed": false,
          "name": "amount",
          "type": "uint256"
        }
      ],
      "name": "Donated",
      "type": "event"
    },
    {
      "anonymous": false,
      "inputs": [
        {
          "indexed": true,
          "name": "from",
          "type": "address"
        },
        {
          "indexed": true,
          "name": "to",
          "type": "address"
        },
        {
          "indexed": false,
          "name": "tokens",
          "type": "uint256"
        }
      ],
      "name": "Withdraw",
      "type": "event"
    },
    {
      "anonymous": false,
      "inputs": [],
      "name": "Pause",
      "type": "event"
    },
    {
      "anonymous": false,
      "inputs": [],
      "name": "Unpause",
      "type": "event"
    },
    {
      "anonymous": false,
      "inputs": [
        {
          "indexed": true,
          "name": "previousOwner",
          "type": "address"
        }
      ],
      "name": "OwnershipRenounced",
      "type": "event"
    },
    {
      "anonymous": false,
      "inputs": [
        {
          "indexed": true,
          "name": "previousOwner",
          "type": "address"
        },
        {
          "indexed": true,
          "name": "newOwner",
          "type": "address"
        }
      ],
      "name": "OwnershipTransferred",
      "type": "event"
    },
    {
      "constant": true,
      "inputs": [
        {
          "name": "_id",
          "type": "uint256"
        }
      ],
      "name": "getProject",
      "outputs": [
        {
          "name": "",
          "type": "string"
        },
        {
          "name": "",
          "type": "uint256"
        },
        {
          "name": "",
          "type": "uint256"
        },
        {
          "name": "",
          "type": "uint256"
        },
        {
          "name": "",
          "type": "address"
        },
        {
          "name": "",
          "type": "address"
        },
        {
          "name": "",
          "type": "bool"
        }
      ],
      "payable": false,
      "stateMutability": "view",
      "type": "function"
    },
    {
      "constant": false,
      "inputs": [
        {
          "name": "_name",
          "type": "string"
        },
        {
          "name": "_goalAmount",
          "type": "uint256"
        }
      ],
      "name": "_createProject",
      "outputs": [
        {
          "name": "",
          "type": "uint256"
        },
        {
          "name": "",
          "type": "string"
        },
        {
          "name": "",
          "type": "uint256"
        },
        {
          "name": "",
          "type": "uint256"
        },
        {
          "name": "",
          "type": "uint256"
        },
        {
          "name": "",
          "type": "address"
        },
        {
          "name": "",
          "type": "address"
        }
      ],
      "payable": false,
      "stateMutability": "nonpayable",
      "type": "function"
    },
    {
      "constant": false,
      "inputs": [
        {
          "name": "_id",
          "type": "uint256"
        },
        {
          "name": "amountToDonate",
          "type": "uint256"
        }
      ],
      "name": "donate",
      "outputs": [
        {
          "name": "newBalance",
          "type": "uint256"
        }
      ],
      "payable": false,
      "stateMutability": "nonpayable",
      "type": "function"
    },
    {
      "constant": false,
      "inputs": [
        {
          "name": "_projectId",
          "type": "uint256"
        },
        {
          "name": "amountToRelease",
          "type": "uint256"
        }
      ],
      "name": "releaseDonation",
      "outputs": [
        {
          "name": "success",
          "type": "bool"
        }
      ],
      "payable": false,
      "stateMutability": "nonpayable",
      "type": "function"
    },
    {
      "constant": false,
      "inputs": [],
      "name": "withdrawToken",
      "outputs": [],
      "payable": false,
      "stateMutability": "nonpayable",
      "type": "function"
    },
    {
      "constant": false,
      "inputs": [],
      "name": "kill",
      "outputs": [],
      "payable": false,
      "stateMutability": "nonpayable",
      "type": "function"
    }
  ],
  "bytecode": "0x608060405260008060146101000a81548160ff021916908315150217905550600060045534801561002f57600080fd5b506000336000806101000a81548173ffffffffffffffffffffffffffffffffffffffff021916908373ffffffffffffffffffffffffffffffffffffffff16021790555061007a61009f565b604051809103906000f080158015610096573d6000803e3d6000fd5b509050506100b0565b604051612b378062001f7583390190565b611eb580620000c06000396000f3006080604052600436106100c5576000357c0100000000000000000000000000000000000000000000000000000000900463ffffffff1680630cdd53f6146101335780633f4ba83a1461017e57806341c0e1b5146101955780635b09a602146101ac5780635c975abb146101fb578063715018a61461022a57806376360ed0146102415780638456cb59146103af5780638da5cb5b146103c6578063c73b302e1461041d578063ca628c7814610448578063f0f3f2c81461045f578063f2fde38b1461058b575b6040517f08c379a00000000000000000000000000000000000000000000000000000000081526004018080602001828103825260108152602001807f446f6e277420616363657074204554480000000000000000000000000000000081525060200191505060405180910390fd5b34801561013f57600080fd5b5061016860048036038101908080359060200190929190803590602001909291905050506105ce565b6040518082815260200191505060405180910390f35b34801561018a57600080fd5b506101936107d6565b005b3480156101a157600080fd5b506101aa610894565b005b3480156101b857600080fd5b506101e16004803603810190808035906020019092919080359060200190929190505050610929565b604051808215151515815260200191505060405180910390f35b34801561020757600080fd5b50610210610c8e565b604051808215151515815260200191505060405180910390f35b34801561023657600080fd5b5061023f610ca1565b005b34801561024d57600080fd5b506102b2600480360381019080803590602001908201803590602001908080601f016020809104026020016040519081016040528093929190818152602001838380828437820191505050505050919291929080359060200190929190505050610da3565b60405180888152602001806020018781526020018681526020018581526020018473ffffffffffffffffffffffffffffffffffffffff1673ffffffffffffffffffffffffffffffffffffffff1681526020018373ffffffffffffffffffffffffffffffffffffffff1673ffffffffffffffffffffffffffffffffffffffff168152602001828103825288818151815260200191508051906020019080838360005b8381101561036e578082015181840152602081019050610353565b50505050905090810190601f16801561039b5780820380516001836020036101000a031916815260200191505b509850505050505050505060405180910390f35b3480156103bb57600080fd5b506103c46113e8565b005b3480156103d257600080fd5b506103db6114a8565b604051808273ffffffffffffffffffffffffffffffffffffffff1673ffffffffffffffffffffffffffffffffffffffff16815260200191505060405180910390f35b34801561042957600080fd5b506104326114cd565b6040518082815260200191505060405180910390f35b34801561045457600080fd5b5061045d6114d3565b005b34801561046b57600080fd5b5061048a60048036038101908080359060200190929190505050611982565b60405180806020018881526020018781526020018681526020018573ffffffffffffffffffffffffffffffffffffffff1673ffffffffffffffffffffffffffffffffffffffff1681526020018473ffffffffffffffffffffffffffffffffffffffff1673ffffffffffffffffffffffffffffffffffffffff16815260200183151515158152602001828103825289818151815260200191508051906020019080838360005b8381101561054a57808201518184015260208101905061052f565b50505050905090810190601f1680156105775780820380516001836020036101000a031916815260200191505b509850505050505050505060405180910390f35b34801561059757600080fd5b506105cc600480360381019080803573ffffffffffffffffffffffffffffffffffffffff169060200190929190505050611b88565b005b60008060149054906101000a900460ff161515156105eb57600080fd5b6000831180156105fd57506004548311155b1515610671576040517f08c379a000000000000000000000000000000000000000000000000000000000815260040180806020018281038252601b8152602001807f6e6f7420612076616c69642070726f6a6563742061646472657373000000000081525060200191505060405180910390fd5b600160009054906101000a900473ffffffffffffffffffffffffffffffffffffffff1673ffffffffffffffffffffffffffffffffffffffff1663a9059cbb6002600086815260200190815260200160002060060160009054906101000a900473ffffffffffffffffffffffffffffffffffffffff16846040518363ffffffff167c0100000000000000000000000000000000000000000000000000000000028152600401808373ffffffffffffffffffffffffffffffffffffffff1673ffffffffffffffffffffffffffffffffffffffff16815260200182815260200192505050602060405180830381600087803b15801561076c57600080fd5b505af1158015610780573d6000803e3d6000fd5b505050506040513d602081101561079657600080fd5b8101908080519060200190929190505050508160026000858152602001908152602001600020600301600082825401925050819055905080905092915050565b6000809054906101000a900473ffffffffffffffffffffffffffffffffffffffff1673ffffffffffffffffffffffffffffffffffffffff163373ffffffffffffffffffffffffffffffffffffffff1614151561083157600080fd5b600060149054906101000a900460ff16151561084c57600080fd5b60008060146101000a81548160ff0219169083151502179055507f7805862f689e2f13df9f062ff482ad3ad112aca9e0847911ed832e158c525b3360405160405180910390a1565b6000809054906101000a900473ffffffffffffffffffffffffffffffffffffffff1673ffffffffffffffffffffffffffffffffffffffff163373ffffffffffffffffffffffffffffffffffffffff161415156108ef57600080fd5b6000809054906101000a900473ffffffffffffffffffffffffffffffffffffffff1673ffffffffffffffffffffffffffffffffffffffff16ff5b6000610933611ce9565b600060149054906101000a900460ff1615151561094f57600080fd5b60026000858152602001908152602001600020610100604051908101604052908160008201548152602001600182018054600181600116156101000203166002900480601f016020809104026020016040519081016040528092919081815260200182805460018160011615610100020316600290048015610a125780601f106109e757610100808354040283529160200191610a12565b820191906000526020600020905b8154815290600101906020018083116109f557829003601f168201915b505050505081526020016002820154815260200160038201548152602001600482015481526020016005820160009054906101000a900473ffffffffffffffffffffffffffffffffffffffff1673ffffffffffffffffffffffffffffffffffffffff1673ffffffffffffffffffffffffffffffffffffffff1681526020016006820160009054906101000a900473ffffffffffffffffffffffffffffffffffffffff1673ffffffffffffffffffffffffffffffffffffffff1673ffffffffffffffffffffffffffffffffffffffff1681526020016006820160149054906101000a900460ff161515151581525050905080606001518311151515610ba4576040517f08c379a00000000000000000000000000000000000000000000000000000000081526004018080602001828103825260318152602001807f63616e6e6f74207769746864726177206d6f7265207468616e2063757272656e81526020017f742070726f6a6563742062616c616e636500000000000000000000000000000081525060400191505060405180910390fd5b8060a0015173ffffffffffffffffffffffffffffffffffffffff163373ffffffffffffffffffffffffffffffffffffffff1614151515610c72576040517f08c379a00000000000000000000000000000000000000000000000000000000081526004018080602001828103825260308152602001807f6f6e6c79206e6f6e2d70726f6a656374206f776e65722063616e2063616c6c2081526020017f72656c6561736520446f6e6174696f6e0000000000000000000000000000000081525060400191505060405180910390fd5b60018160e0019015159081151581525050600191505092915050565b600060149054906101000a900460ff1681565b6000809054906101000a900473ffffffffffffffffffffffffffffffffffffffff1673ffffffffffffffffffffffffffffffffffffffff163373ffffffffffffffffffffffffffffffffffffffff16141515610cfc57600080fd5b6000809054906101000a900473ffffffffffffffffffffffffffffffffffffffff1673ffffffffffffffffffffffffffffffffffffffff167ff8df31144d9c2f0f6b59d69b8b98abd5459d07f2742c4df920b25aae33c6482060405160405180910390a260008060006101000a81548173ffffffffffffffffffffffffffffffffffffffff021916908373ffffffffffffffffffffffffffffffffffffffff160217905550565b6000606060008060008060008060149054906101000a900460ff16151515610dca57600080fd5b6004600081548092919060010191905055506101006040519081016040528060045481526020018a815260200189815260200160008152602001600081526020013373ffffffffffffffffffffffffffffffffffffffff168152602001600333604051602001808273ffffffffffffffffffffffffffffffffffffffff1673ffffffffffffffffffffffffffffffffffffffff166c010000000000000000000000000281526014019150506040516020818303038152906040526040518082805190602001908083835b602083101515610eb95780518252602082019150602081019050602083039250610e94565b6001836020036101000a0380198251168184511680821785525050505050509050019150506020604051808303816000865af1158015610efd573d6000803e3d6000fd5b505050604051516c01000000000000000000000000026c01000000000000000000000000900473ffffffffffffffffffffffffffffffffffffffff16815260200160001515815250600260006004548152602001908152602001600020600082015181600001556020820151816001019080519060200190610f80929190611d5d565b5060408201518160020155606082015181600301556080820151816004015560a08201518160050160006101000a81548173ffffffffffffffffffffffffffffffffffffffff021916908373ffffffffffffffffffffffffffffffffffffffff16021790555060c08201518160060160006101000a81548173ffffffffffffffffffffffffffffffffffffffff021916908373ffffffffffffffffffffffffffffffffffffffff16021790555060e08201518160060160146101000a81548160ff021916908315150217905550905050600260006004548152602001908152602001600020600360003373ffffffffffffffffffffffffffffffffffffffff1673ffffffffffffffffffffffffffffffffffffffff16815260200190815260200160002060008201548160000155600182018160010190805460018160011615610100020316600290046110d5929190611ddd565b506002820154816002015560038201548160030155600482015481600401556005820160009054906101000a900473ffffffffffffffffffffffffffffffffffffffff168160050160006101000a81548173ffffffffffffffffffffffffffffffffffffffff021916908373ffffffffffffffffffffffffffffffffffffffff1602179055506006820160009054906101000a900473ffffffffffffffffffffffffffffffffffffffff168160060160006101000a81548173ffffffffffffffffffffffffffffffffffffffff021916908373ffffffffffffffffffffffffffffffffffffffff1602179055506006820160149054906101000a900460ff168160060160146101000a81548160ff021916908315150217905550905050886040518082805190602001908083835b6020831015156112285780518252602082019150602081019050602083039250611203565b6001836020036101000a03801982511681845116808217855250505050505090500191505060405180910390206004547fdfeb86e32410697285e84e83f636c2a27b16b9f0663d06fd01b0946f26849da98a33604051808381526020018273ffffffffffffffffffffffffffffffffffffffff1673ffffffffffffffffffffffffffffffffffffffff1681526020019250505060405180910390a3600454898960008033600333604051602001808273ffffffffffffffffffffffffffffffffffffffff1673ffffffffffffffffffffffffffffffffffffffff166c010000000000000000000000000281526014019150506040516020818303038152906040526040518082805190602001908083835b60208310151561135e5780518252602082019150602081019050602083039250611339565b6001836020036101000a0380198251168184511680821785525050505050509050019150506020604051808303816000865af11580156113a2573d6000803e3d6000fd5b505050604051516c01000000000000000000000000026c010000000000000000000000009004839350829250965096509650965096509650965092959891949750929550565b6000809054906101000a900473ffffffffffffffffffffffffffffffffffffffff1673ffffffffffffffffffffffffffffffffffffffff163373ffffffffffffffffffffffffffffffffffffffff1614151561144357600080fd5b600060149054906101000a900460ff1615151561145f57600080fd5b6001600060146101000a81548160ff0219169083151502179055507f6985a02210a168e66602d3235cb6db0e70f92b3ba4d376a33c0f3d9434bff62560405160405180910390a1565b6000809054906101000a900473ffffffffffffffffffffffffffffffffffffffff1681565b60045481565b6114db611ce9565b60008160a0015173ffffffffffffffffffffffffffffffffffffffff163373ffffffffffffffffffffffffffffffffffffffff161415156115aa576040517f08c379a00000000000000000000000000000000000000000000000000000000081526004018080602001828103825260268152602001807f6f6e6c792070726f6a6563742063726561746f722063616e2063616c6c20776981526020017f746864726177000000000000000000000000000000000000000000000000000081525060400191505060405180910390fd5b600360003373ffffffffffffffffffffffffffffffffffffffff1673ffffffffffffffffffffffffffffffffffffffff168152602001908152602001600020610100604051908101604052908160008201548152602001600182018054600181600116156101000203166002900480601f0160208091040260200160405190810160405280929190818152602001828054600181600116156101000203166002900480156116995780601f1061166e57610100808354040283529160200191611699565b820191906000526020600020905b81548152906001019060200180831161167c57829003601f168201915b505050505081526020016002820154815260200160038201548152602001600482015481526020016005820160009054906101000a900473ffffffffffffffffffffffffffffffffffffffff1673ffffffffffffffffffffffffffffffffffffffff1673ffffffffffffffffffffffffffffffffffffffff1681526020016006820160009054906101000a900473ffffffffffffffffffffffffffffffffffffffff1673ffffffffffffffffffffffffffffffffffffffff1673ffffffffffffffffffffffffffffffffffffffff1681526020016006820160149054906101000a900460ff1615151515815250509150600115158260e00151151514151561182f576040517f08c379a00000000000000000000000000000000000000000000000000000000081526004018080602001828103825260248152602001807f646f6e6174696f6e206e6f742072656c656173656420666f722077697468647281526020017f6177616c0000000000000000000000000000000000000000000000000000000081525060400191505060405180910390fd5b816080015190506000826080018181525050600160009054906101000a900473ffffffffffffffffffffffffffffffffffffffff1673ffffffffffffffffffffffffffffffffffffffff166323b872dd8360c001518460a00151846040518463ffffffff167c0100000000000000000000000000000000000000000000000000000000028152600401808473ffffffffffffffffffffffffffffffffffffffff1673ffffffffffffffffffffffffffffffffffffffff1681526020018373ffffffffffffffffffffffffffffffffffffffff1673ffffffffffffffffffffffffffffffffffffffff1681526020018281526020019350505050602060405180830381600087803b15801561194257600080fd5b505af1158015611956573d6000803e3d6000fd5b505050506040513d602081101561196c57600080fd5b8101908080519060200190929190505050505050565b6060600080600080600080611995611ce9565b600260008a8152602001908152602001600020610100604051908101604052908160008201548152602001600182018054600181600116156101000203166002900480601f016020809104026020016040519081016040528092919081815260200182805460018160011615610100020316600290048015611a585780601f10611a2d57610100808354040283529160200191611a58565b820191906000526020600020905b815481529060010190602001808311611a3b57829003601f168201915b505050505081526020016002820154815260200160038201548152602001600482015481526020016005820160009054906101000a900473ffffffffffffffffffffffffffffffffffffffff1673ffffffffffffffffffffffffffffffffffffffff1673ffffffffffffffffffffffffffffffffffffffff1681526020016006820160009054906101000a900473ffffffffffffffffffffffffffffffffffffffff1673ffffffffffffffffffffffffffffffffffffffff1673ffffffffffffffffffffffffffffffffffffffff1681526020016006820160149054906101000a900460ff161515151581525050905080602001518160400151826060015183608001518460a001518560c001518660e00151869650975097509750975097509750975050919395979092949650565b6000809054906101000a900473ffffffffffffffffffffffffffffffffffffffff1673ffffffffffffffffffffffffffffffffffffffff163373ffffffffffffffffffffffffffffffffffffffff16141515611be357600080fd5b611bec81611bef565b50565b600073ffffffffffffffffffffffffffffffffffffffff168173ffffffffffffffffffffffffffffffffffffffff1614151515611c2b57600080fd5b8073ffffffffffffffffffffffffffffffffffffffff166000809054906101000a900473ffffffffffffffffffffffffffffffffffffffff1673ffffffffffffffffffffffffffffffffffffffff167f8be0079c531659141344cd1fd0a4f28419497f9722a3daafe3b4186f6b6457e060405160405180910390a3806000806101000a81548173ffffffffffffffffffffffffffffffffffffffff021916908373ffffffffffffffffffffffffffffffffffffffff16021790555050565b610100604051908101604052806000815260200160608152602001600081526020016000815260200160008152602001600073ffffffffffffffffffffffffffffffffffffffff168152602001600073ffffffffffffffffffffffffffffffffffffffff1681526020016000151581525090565b828054600181600116156101000203166002900490600052602060002090601f016020900481019282601f10611d9e57805160ff1916838001178555611dcc565b82800160010185558215611dcc579182015b82811115611dcb578251825591602001919060010190611db0565b5b509050611dd99190611e64565b5090565b828054600181600116156101000203166002900490600052602060002090601f016020900481019282601f10611e165780548555611e53565b82800160010185558215611e5357600052602060002091601f016020900482015b82811115611e52578254825591600101919060010190611e37565b5b509050611e609190611e64565b5090565b611e8691905b80821115611e82576000816000905550600101611e6a565b5090565b905600a165627a7a723058206bd139a6402a9bd1919fd00a1bf5fc24b5fc006968300e5d783159d6eb60846700296080604052610400600755620100006008557c01000000000000000000000000000000000000000000000000000000006009556000601260006101000a81548160ff0219169083151502179055503480156200005a57600080fd5b50336000806101000a81548173ffffffffffffffffffffffffffffffffffffffff021916908373ffffffffffffffffffffffffffffffffffffffff1602179055506040805190810160405280600381526020017f424e56000000000000000000000000000000000000000000000000000000000081525060019080519060200190620000e892919062000733565b506040805190810160405280600b81526020017f42656e65766f546f6b656e000000000000000000000000000000000000000000815250600290805190602001906200013692919062000733565b506008600360006101000a81548160ff021916908360ff160217905550600360009054906101000a900460ff1660ff16600a0a626ddd0002600481905550601260009054906101000a900460ff1615620001f8576040517f08c379a00000000000000000000000000000000000000000000000000000000081526004018080602001828103825260128152602001807f6d757374206e6f74206265206c6f636b6564000000000000000000000000000081525060200191505060405180910390fd5b6000601260006101000a81548160ff02191690831515021790555060006011819055506000600c81905550620002496002600454620002c46401000000000262002180179091906401000000009004565b600d81905550600954600a819055504360058190555062000278620002db640100000000026401000000009004565b6103e8601460003373ffffffffffffffffffffffffffffffffffffffff1673ffffffffffffffffffffffffffffffffffffffff16815260200190815260200160002081905550620007e2565b60008183811515620002d257fe5b04905092915050565b600d546200031b620002fb620003e6640100000000026401000000009004565b6011546200042d6401000000000262002196179091906401000000009004565b1180156200032b57506027600c54105b156200033e576001600c5401600c819055505b6200036b6001600c540160020a600454620002c46401000000000262002180179091906401000000009004565b60045403600d819055506200039b60016006546200042d6401000000000262002196179091906401000000009004565b6006819055506000600754600654811515620003b357fe5b061415620003d557620003d46200044a640100000000026401000000009004565b5b6001430340600b8160001916905550565b600062000428600c5460020a600360009054906101000a900460ff1660ff16600a0a603202620002c46401000000000262002180179091906401000000009004565b905090565b600081830190508281101515156200044157fe5b80905092915050565b6000806000806000806000600554430396506007549550603c86029450848710156200057b57620004b68762000499606488620006bf64010000000002620022c5179091906401000000009004565b620002c46401000000000262002180179091906401000000009004565b9350620005006103e8620004e3606487620006fb64010000000002620021b2179091906401000000009004565b6200071564010000000002620022fd179091906401000000009004565b92506200056f6200054f84620005326107d0600a54620002c46401000000000262002180179091906401000000009004565b620006bf64010000000002620022c5179091906401000000009004565b600a54620006fb64010000000002620021b2179091906401000000009004565b600a8190555062000681565b620005c185620005a460648a620006bf64010000000002620022c5179091906401000000009004565b620002c46401000000000262002180179091906401000000009004565b91506200060b6103e8620005ee606485620006fb64010000000002620021b2179091906401000000009004565b6200071564010000000002620022fd179091906401000000009004565b90506200067a6200065a826200063d6107d0600a54620002c46401000000000262002180179091906401000000009004565b620006bf64010000000002620022c5179091906401000000009004565b600a546200042d6401000000000262002196179091906401000000009004565b600a819055505b43600581905550600854600a5410156200069f57600854600a819055505b600954600a541115620006b657600954600a819055505b50505050505050565b600080831415620006d45760009050620006f5565b8183029050818382811515620006e657fe5b04141515620006f157fe5b8090505b92915050565b60008282111515156200070a57fe5b818303905092915050565b60008183111562000729578190506200072d565b8290505b92915050565b828054600181600116156101000203166002900490600052602060002090601f016020900481019282601f106200077657805160ff1916838001178555620007a7565b82800160010185558215620007a7579182015b82811115620007a657825182559160200191906001019062000789565b5b509050620007b69190620007ba565b5090565b620007df91905b80821115620007db576000816000905550600101620007c1565b5090565b90565b61234580620007f26000396000f3006080604052600436106101cd576000357c0100000000000000000000000000000000000000000000000000000000900463ffffffff16806306fdde031461023b578063095ea7b3146102cb578063163aa00d1461033057806317da485f1461035b5780631801fbe51461038657806318160ddd146103d957806323b872dd1461040457806327e235e3146104895780632d38bf7a146104e0578063313ce5671461050b57806332e997081461053c5780633eaaf86b1461056757806341c0e1b514610592578063490203a7146105a95780634ef37628146105d45780634fa972e1146106075780636de9f32b146106325780636fd396d61461065d57806370a08231146106b4578063715018a61461070b57806381269a5614610722578063829965cc1461078d57806387a2a9d6146107b85780638a769d35146107e35780638ae0368b1461080e5780638da5cb5b1461084157806395d89b411461089857806397566aa014610928578063a9059cbb1461098d578063b5ade81b146109f2578063bafedcaa14610a1d578063cae9ca5114610a48578063cb9ae70714610af3578063dc39d06d14610b1e578063dc6e9cf914610b83578063dd62ed3e14610bae578063f2fde38b14610c25575b6040517f08c379a00000000000000000000000000000000000000000000000000000000081526004018080602001828103825260108152602001807f446f6e277420616363657074204554480000000000000000000000000000000081525060200191505060405180910390fd5b34801561024757600080fd5b50610250610c68565b6040518080602001828103825283818151815260200191508051906020019080838360005b83811015610290578082015181840152602081019050610275565b50505050905090810190601f1680156102bd5780820380516001836020036101000a031916815260200191505b509250505060405180910390f35b3480156102d757600080fd5b50610316600480360381019080803573ffffffffffffffffffffffffffffffffffffffff16906020019092919080359060200190929190505050610d06565b604051808215151515815260200191505060405180910390f35b34801561033c57600080fd5b50610345610df8565b6040518082815260200191505060405180910390f35b34801561036757600080fd5b50610370610dfe565b6040518082815260200191505060405180910390f35b34801561039257600080fd5b506103bf600480360381019080803590602001909291908035600019169060200190929190505050610e1c565b604051808215151515815260200191505060405180910390f35b3480156103e557600080fd5b506103ee6112ad565b6040518082815260200191505060405180910390f35b34801561041057600080fd5b5061046f600480360381019080803573ffffffffffffffffffffffffffffffffffffffff169060200190929190803573ffffffffffffffffffffffffffffffffffffffff169060200190929190803590602001909291905050506112f8565b604051808215151515815260200191505060405180910390f35b34801561049557600080fd5b506104ca600480360381019080803573ffffffffffffffffffffffffffffffffffffffff1690602001909291905050506115a3565b6040518082815260200191505060405180910390f35b3480156104ec57600080fd5b506104f56115bb565b6040518082815260200191505060405180910390f35b34801561051757600080fd5b506105206115c1565b604051808260ff1660ff16815260200191505060405180910390f35b34801561054857600080fd5b506105516115d4565b6040518082815260200191505060405180910390f35b34801561057357600080fd5b5061057c6115de565b6040518082815260200191505060405180910390f35b34801561059e57600080fd5b506105a76115e4565b005b3480156105b557600080fd5b506105be611679565b6040518082815260200191505060405180910390f35b3480156105e057600080fd5b506105e96116b0565b60405180826000191660001916815260200191505060405180910390f35b34801561061357600080fd5b5061061c6116ba565b6040518082815260200191505060405180910390f35b34801561063e57600080fd5b506106476116c0565b6040518082815260200191505060405180910390f35b34801561066957600080fd5b506106726116c6565b604051808273ffffffffffffffffffffffffffffffffffffffff1673ffffffffffffffffffffffffffffffffffffffff16815260200191505060405180910390f35b3480156106c057600080fd5b506106f5600480360381019080803573ffffffffffffffffffffffffffffffffffffffff1690602001909291905050506116ec565b6040518082815260200191505060405180910390f35b34801561071757600080fd5b50610720611735565b005b34801561072e57600080fd5b50610773600480360381019080803590602001909291908035600019169060200190929190803560001916906020019092919080359060200190929190505050611837565b604051808215151515815260200191505060405180910390f35b34801561079957600080fd5b506107a26119c7565b6040518082815260200191505060405180910390f35b3480156107c457600080fd5b506107cd6119cd565b6040518082815260200191505060405180910390f35b3480156107ef57600080fd5b506107f86119d3565b6040518082815260200191505060405180910390f35b34801561081a57600080fd5b506108236119d9565b60405180826000191660001916815260200191505060405180910390f35b34801561084d57600080fd5b506108566119df565b604051808273ffffffffffffffffffffffffffffffffffffffff1673ffffffffffffffffffffffffffffffffffffffff16815260200191505060405180910390f35b3480156108a457600080fd5b506108ad611a04565b6040518080602001828103825283818151815260200191508051906020019080838360005b838110156108ed5780820151818401526020810190506108d2565b50505050905090810190601f16801561091a5780820380516001836020036101000a031916815260200191505b509250505060405180910390f35b34801561093457600080fd5b5061096f6004803603810190808035906020019092919080356000191690602001909291908035600019169060200190929190505050611aa2565b60405180826000191660001916815260200191505060405180910390f35b34801561099957600080fd5b506109d8600480360381019080803573ffffffffffffffffffffffffffffffffffffffff16906020019092919080359060200190929190505050611b87565b604051808215151515815260200191505060405180910390f35b3480156109fe57600080fd5b50610a07611d22565b6040518082815260200191505060405180910390f35b348015610a2957600080fd5b50610a32611d28565b6040518082815260200191505060405180910390f35b348015610a5457600080fd5b50610ad9600480360381019080803573ffffffffffffffffffffffffffffffffffffffff16906020019092919080359060200190929190803590602001908201803590602001908080601f0160208091040260200160405190810160405280939291908181526020018383808284378201915050505050509192919290505050611d2e565b604051808215151515815260200191505060405180910390f35b348015610aff57600080fd5b50610b08611f7d565b6040518082815260200191505060405180910390f35b348015610b2a57600080fd5b50610b69600480360381019080803573ffffffffffffffffffffffffffffffffffffffff16906020019092919080359060200190929190505050611f83565b604051808215151515815260200191505060405180910390f35b348015610b8f57600080fd5b50610b9861208c565b6040518082815260200191505060405180910390f35b348015610bba57600080fd5b50610c0f600480360381019080803573ffffffffffffffffffffffffffffffffffffffff169060200190929190803573ffffffffffffffffffffffffffffffffffffffff169060200190929190505050612092565b6040518082815260200191505060405180910390f35b348015610c3157600080fd5b50610c66600480360381019080803573ffffffffffffffffffffffffffffffffffffffff169060200190929190505050612119565b005b60028054600181600116156101000203166002900480601f016020809104026020016040519081016040528092919081815260200182805460018160011615610100020316600290048015610cfe5780601f10610cd357610100808354040283529160200191610cfe565b820191906000526020600020905b815481529060010190602001808311610ce157829003601f168201915b505050505081565b600081601560003373ffffffffffffffffffffffffffffffffffffffff1673ffffffffffffffffffffffffffffffffffffffff16815260200190815260200160002060008573ffffffffffffffffffffffffffffffffffffffff1673ffffffffffffffffffffffffffffffffffffffff168152602001908152602001600020819055508273ffffffffffffffffffffffffffffffffffffffff163373ffffffffffffffffffffffffffffffffffffffff167f8c5be1e5ebec7d5bd14f71427d1e84f3dd0314c0f7b2291e5b200ac8c7c3b925846040518082815260200191505060405180910390a36001905092915050565b60105481565b6000610e17600a5460095461218090919063ffffffff16565b905090565b600080600080600b5433876040516020018084600019166000191681526020018373ffffffffffffffffffffffffffffffffffffffff1673ffffffffffffffffffffffffffffffffffffffff166c0100000000000000000000000002815260140182815260200193505050506040516020818303038152906040526040518082805190602001908083835b602083101515610ecc5780518252602082019150602081019050602083039250610ea7565b6001836020036101000a0380198251168184511680821785525050505050509050019150506040518091039020925084600019168360001916141515610fa0576040517f08c379a00000000000000000000000000000000000000000000000000000000081526004018080602001828103825260288152602001807f6368616c6c656e676520646967657374206d757374206d61746368207468652081526020017f657870656374656400000000000000000000000000000000000000000000000081525060400191505060405180910390fd5b600a5483600190041115611042576040517f08c379a00000000000000000000000000000000000000000000000000000000081526004018080602001828103825260228152602001807f646967657374206d75737420626520736d616c6c6572207468616e207461726781526020017f657400000000000000000000000000000000000000000000000000000000000081525060400191505060405180910390fd5b60136000600b54600019166000191681526020019081526020016000205491508260136000600b546000191660001916815260200190815260200160002081600019169055506000600102826000191614151561112d576040517f08c379a00000000000000000000000000000000000000000000000000000000081526004018080602001828103825260228152602001807f50726576656e74206177617264696e672073616d6520616e737765722074776981526020017f636500000000000000000000000000000000000000000000000000000000000081525060400191505060405180910390fd5b611135611679565b905061118981601460003373ffffffffffffffffffffffffffffffffffffffff1673ffffffffffffffffffffffffffffffffffffffff1681526020019081526020016000205461219690919063ffffffff16565b601460003373ffffffffffffffffffffffffffffffffffffffff1673ffffffffffffffffffffffffffffffffffffffff168152602001908152602001600020819055506111e18160115461219690919063ffffffff16565b60118190555033600e60006101000a81548173ffffffffffffffffffffffffffffffffffffffff021916908373ffffffffffffffffffffffffffffffffffffffff16021790555080600f81905550436010819055503373ffffffffffffffffffffffffffffffffffffffff167fcf6fbb9dcea7d07263ab4f5c3a92f53af33dffc421d9d121e1c74b307e68189d82600654600b54604051808481526020018381526020018260001916600019168152602001935050505060405180910390a26001935050505092915050565b6000601460008073ffffffffffffffffffffffffffffffffffffffff1673ffffffffffffffffffffffffffffffffffffffff1681526020019081526020016000205460045403905090565b600061134c82601460008773ffffffffffffffffffffffffffffffffffffffff1673ffffffffffffffffffffffffffffffffffffffff168152602001908152602001600020546121b290919063ffffffff16565b601460008673ffffffffffffffffffffffffffffffffffffffff1673ffffffffffffffffffffffffffffffffffffffff1681526020019081526020016000208190555061141e82601560008773ffffffffffffffffffffffffffffffffffffffff1673ffffffffffffffffffffffffffffffffffffffff16815260200190815260200160002060003373ffffffffffffffffffffffffffffffffffffffff1673ffffffffffffffffffffffffffffffffffffffff168152602001908152602001600020546121b290919063ffffffff16565b601560008673ffffffffffffffffffffffffffffffffffffffff1673ffffffffffffffffffffffffffffffffffffffff16815260200190815260200160002060003373ffffffffffffffffffffffffffffffffffffffff1673ffffffffffffffffffffffffffffffffffffffff168152602001908152602001600020819055506114f082601460008673ffffffffffffffffffffffffffffffffffffffff1673ffffffffffffffffffffffffffffffffffffffff1681526020019081526020016000205461219690919063ffffffff16565b601460008573ffffffffffffffffffffffffffffffffffffffff1673ffffffffffffffffffffffffffffffffffffffff168152602001908152602001600020819055508273ffffffffffffffffffffffffffffffffffffffff168473ffffffffffffffffffffffffffffffffffffffff167fddf252ad1be2c89b69c2b068fc378daa952ba7f163c4a11628f55a4df523b3ef846040518082815260200191505060405180910390a3600190509392505050565b60146020528060005260406000206000915090505481565b600c5481565b600360009054906101000a900460ff1681565b6000600a54905090565b60045481565b6000809054906101000a900473ffffffffffffffffffffffffffffffffffffffff1673ffffffffffffffffffffffffffffffffffffffff163373ffffffffffffffffffffffffffffffffffffffff1614151561163f57600080fd5b6000809054906101000a900473ffffffffffffffffffffffffffffffffffffffff1673ffffffffffffffffffffffffffffffffffffffff16ff5b60006116ab600c5460020a600360009054906101000a900460ff1660ff16600a0a60320261218090919063ffffffff16565b905090565b6000600b54905090565b600d5481565b60115481565b600e60009054906101000a900473ffffffffffffffffffffffffffffffffffffffff1681565b6000601460008373ffffffffffffffffffffffffffffffffffffffff1673ffffffffffffffffffffffffffffffffffffffff168152602001908152602001600020549050919050565b6000809054906101000a900473ffffffffffffffffffffffffffffffffffffffff1673ffffffffffffffffffffffffffffffffffffffff163373ffffffffffffffffffffffffffffffffffffffff1614151561179057600080fd5b6000809054906101000a900473ffffffffffffffffffffffffffffffffffffffff1673ffffffffffffffffffffffffffffffffffffffff167ff8df31144d9c2f0f6b59d69b8b98abd5459d07f2742c4df920b25aae33c6482060405160405180910390a260008060006101000a81548173ffffffffffffffffffffffffffffffffffffffff021916908373ffffffffffffffffffffffffffffffffffffffff160217905550565b6000808333876040516020018084600019166000191681526020018373ffffffffffffffffffffffffffffffffffffffff1673ffffffffffffffffffffffffffffffffffffffff166c0100000000000000000000000002815260140182815260200193505050506040516020818303038152906040526040518082805190602001908083835b6020831015156118e257805182526020820191506020810190506020830392506118bd565b6001836020036101000a0380198251168184511680821785525050505050509050019150506040518091039020905082816001900411156119b1576040517f08c379a000000000000000000000000000000000000000000000000000000000815260040180806020018281038252602a8152602001807f646967657374206d757374206e6f7420626520686967686572207468616e207481526020017f657374205461726765740000000000000000000000000000000000000000000081525060400191505060405180910390fd5b8460001916816000191614915050949350505050565b60065481565b60095481565b600a5481565b600b5481565b6000809054906101000a900473ffffffffffffffffffffffffffffffffffffffff1681565b60018054600181600116156101000203166002900480601f016020809104026020016040519081016040528092919081815260200182805460018160011615610100020316600290048015611a9a5780601f10611a6f57610100808354040283529160200191611a9a565b820191906000526020600020905b815481529060010190602001808311611a7d57829003601f168201915b505050505081565b6000808233866040516020018084600019166000191681526020018373ffffffffffffffffffffffffffffffffffffffff1673ffffffffffffffffffffffffffffffffffffffff166c0100000000000000000000000002815260140182815260200193505050506040516020818303038152906040526040518082805190602001908083835b602083101515611b4d5780518252602082019150602081019050602083039250611b28565b6001836020036101000a03801982511681845116808217855250505050505090500191505060405180910390209050809150509392505050565b6000611bdb82601460003373ffffffffffffffffffffffffffffffffffffffff1673ffffffffffffffffffffffffffffffffffffffff168152602001908152602001600020546121b290919063ffffffff16565b601460003373ffffffffffffffffffffffffffffffffffffffff1673ffffffffffffffffffffffffffffffffffffffff16815260200190815260200160002081905550611c7082601460008673ffffffffffffffffffffffffffffffffffffffff1673ffffffffffffffffffffffffffffffffffffffff1681526020019081526020016000205461219690919063ffffffff16565b601460008573ffffffffffffffffffffffffffffffffffffffff1673ffffffffffffffffffffffffffffffffffffffff168152602001908152602001600020819055508273ffffffffffffffffffffffffffffffffffffffff163373ffffffffffffffffffffffffffffffffffffffff167fddf252ad1be2c89b69c2b068fc378daa952ba7f163c4a11628f55a4df523b3ef846040518082815260200191505060405180910390a36001905092915050565b60075481565b600f5481565b600082601560003373ffffffffffffffffffffffffffffffffffffffff1673ffffffffffffffffffffffffffffffffffffffff16815260200190815260200160002060008673ffffffffffffffffffffffffffffffffffffffff1673ffffffffffffffffffffffffffffffffffffffff168152602001908152602001600020819055508373ffffffffffffffffffffffffffffffffffffffff163373ffffffffffffffffffffffffffffffffffffffff167f8c5be1e5ebec7d5bd14f71427d1e84f3dd0314c0f7b2291e5b200ac8c7c3b925856040518082815260200191505060405180910390a38373ffffffffffffffffffffffffffffffffffffffff16638f4ffcb1338530866040518563ffffffff167c0100000000000000000000000000000000000000000000000000000000028152600401808573ffffffffffffffffffffffffffffffffffffffff1673ffffffffffffffffffffffffffffffffffffffff1681526020018481526020018373ffffffffffffffffffffffffffffffffffffffff1673ffffffffffffffffffffffffffffffffffffffff16815260200180602001828103825283818151815260200191508051906020019080838360005b83811015611f0b578082015181840152602081019050611ef0565b50505050905090810190601f168015611f385780820380516001836020036101000a031916815260200191505b5095505050505050600060405180830381600087803b158015611f5a57600080fd5b505af1158015611f6e573d6000803e3d6000fd5b50505050600190509392505050565b60055481565b60008273ffffffffffffffffffffffffffffffffffffffff1663a9059cbb6000809054906101000a900473ffffffffffffffffffffffffffffffffffffffff16846040518363ffffffff167c0100000000000000000000000000000000000000000000000000000000028152600401808373ffffffffffffffffffffffffffffffffffffffff1673ffffffffffffffffffffffffffffffffffffffff16815260200182815260200192505050602060405180830381600087803b15801561204957600080fd5b505af115801561205d573d6000803e3d6000fd5b505050506040513d602081101561207357600080fd5b8101908080519060200190929190505050905092915050565b60085481565b6000601560008473ffffffffffffffffffffffffffffffffffffffff1673ffffffffffffffffffffffffffffffffffffffff16815260200190815260200160002060008373ffffffffffffffffffffffffffffffffffffffff1673ffffffffffffffffffffffffffffffffffffffff16815260200190815260200160002054905092915050565b6000809054906101000a900473ffffffffffffffffffffffffffffffffffffffff1673ffffffffffffffffffffffffffffffffffffffff163373ffffffffffffffffffffffffffffffffffffffff1614151561217457600080fd5b61217d816121cb565b50565b6000818381151561218d57fe5b04905092915050565b600081830190508281101515156121a957fe5b80905092915050565b60008282111515156121c057fe5b818303905092915050565b600073ffffffffffffffffffffffffffffffffffffffff168173ffffffffffffffffffffffffffffffffffffffff161415151561220757600080fd5b8073ffffffffffffffffffffffffffffffffffffffff166000809054906101000a900473ffffffffffffffffffffffffffffffffffffffff1673ffffffffffffffffffffffffffffffffffffffff167f8be0079c531659141344cd1fd0a4f28419497f9722a3daafe3b4186f6b6457e060405160405180910390a3806000806101000a81548173ffffffffffffffffffffffffffffffffffffffff021916908373ffffffffffffffffffffffffffffffffffffffff16021790555050565b6000808314156122d857600090506122f7565b81830290508183828115156122e957fe5b041415156122f357fe5b8090505b92915050565b60008183111561230f57819050612313565b8290505b929150505600a165627a7a7230582086dbae33dcc9a3ec11bfee21c3b54c5aa1f877293885ea35bedadf157c164f060029",
  "source": "pragma solidity ^0.4.19;\n\nimport \"node_modules/openzeppelin-solidity/contracts/lifecycle/Pausable.sol\";\nimport \"node_modules/openzeppelin-solidity/contracts/math/SafeMath.sol\";\nimport \"contracts/BenevoToken.sol\";\n\n\n// pausable enables emergency stop\ncontract BenevoProjects is Pausable {\n\n    BenevoToken bnt;\n\n    //all arithmetic operation in this contract uses Openzeppelin's SafeMath library\n    using SafeMath for uint;\n    \n    event NewProject(uint indexed projectId, string indexed name, uint goalAmount, address owner);\n    event Donated(address indexed donor, uint projectId, uint amount);\n    event Withdraw(address indexed from, address indexed to, uint tokens); \n\n    //currentAmount is total amount of token donated. currentBalnace is currentAmount minus tokens the owner already withdrew\n    struct Project {\n        uint id;\n        string name;\n        uint goalAmount;\n        uint currentAmount;\n        uint currentBalance;\n        address ownerAddress;\n        address projectAddress;\n        bool canWithdraw;\n    }\n\n    mapping (uint => Project) projects;\n    mapping (address => Project) owners;\n\n    uint public projectsCount = 0;\n\n    constructor () public{\n        BenevoToken bnt = new BenevoToken();\n    }\n\n    /** @dev Project getter\n        @param _id Project id\n    */\n    function getProject(uint _id) public view returns (string, uint, uint, uint, address, address, bool){\n        Project memory project = projects[_id];\n        return (project.name, project.goalAmount, project.currentAmount, project.currentBalance, \n        project.ownerAddress, project.projectAddress, project.canWithdraw);\n    }\n\n    /** @dev Create a new project with a BenevoToken contractAccount\n      * @param _name The name of the project\n      * @param _goalAmount Goal amount of BenevoToken to be donated\n    */\n    \n    function _createProject(string _name, uint _goalAmount) \n    public whenNotPaused returns(uint, string, uint, uint, uint, address, address){\n        projectsCount ++;\n        projects[projectsCount] = Project(projectsCount, _name, _goalAmount, 0, 0, msg.sender,\n            address(ripemd160(abi.encodePacked(msg.sender))), false);\n        owners[msg.sender] = projects[projectsCount];\n        emit NewProject(projectsCount, _name, _goalAmount, msg.sender);\n        return (projectsCount, _name, _goalAmount, 0, 0, msg.sender, address(ripemd160(abi.encodePacked(msg.sender))));\n    }\n\n    /** @dev Donate BenevoToken to the project\n      * @param _id The id of the project\n      * @param amountToDonate Amount of BenevoToken to donate to the project\n    */\n    function donate(uint _id, uint amountToDonate) public whenNotPaused returns (uint newBalance){\n        require(_id > 0 && _id <= projectsCount, \"not a valid project address\");\n        //bnt.transferFrom(msg.sender, projects[_id].projectAddress, amountToDonate);\n        bnt.transfer(projects[_id].projectAddress, amountToDonate);\n        newBalance = projects[_id].currentAmount += amountToDonate;\n        return newBalance;\n    }\n\n    /** @dev Release the escrowed donation to the project owner \n        @param _projectId Project ID\n        @param amountToRelease Amount of BenevoToken to be released\n    */\n\n    function releaseDonation(uint _projectId, uint amountToRelease) public whenNotPaused returns (bool success){\n        Project memory project = projects[_projectId];\n        require(amountToRelease <= project.currentAmount, \"cannot withdraw more than current project balance\");\n        require(msg.sender != project.ownerAddress, \"only non-project owner can call release Donation\");\n        project.canWithdraw = true;\n        return true;\n    }\n\n    /** @dev project owner can withdraw all the tokens that were released\n     */\n\n    function withdrawToken() external{\n        require(msg.sender == project.ownerAddress, \"only project creator can call withdraw\");\n        Project memory project = owners[msg.sender];\n        require(project.canWithdraw == true, \"donation not released for withdrawal\");\n        uint withdrawAmount = project.currentBalance;\n        //Subtract withdraw amount before releasing token to for best practice\n        project.currentBalance = 0;\n        bnt.transferFrom(project.projectAddress, project.ownerAddress, withdrawAmount);\n    }\n\n    /** @dev Eth payable fallback\n    */\n\n    function () public payable {\n        revert(\"Don't accept ETH\");\n    }\n\n    /** @dev kill the contract\n    */\n    function kill() public onlyOwner {\n        selfdestruct(owner);\n    }\n}",
  "sourcePath": "/Users/kagesawamasaki/program/dapp/BenevoProjects/contracts/BenevoProjects.sol",
  "compiler": {
    "name": "solc",
    "version": "0.4.24+commit.e67f0147.Emscripten.clang"
  },
  "schemaVersion": "2.0.0",
  "updatedAt": "2018-08-19T11:16:33.724Z"
}