{
  "contractName": "BenevoProjects",
  "abi": [
    {
      "constant": false,
      "inputs": [],
      "name": "unpause",
      "outputs": [],
      "payable": false,
      "stateMutability": "nonpayable",
      "type": "function"
    },
    {
      "constant": true,
      "inputs": [],
      "name": "paused",
      "outputs": [
        {
          "name": "",
          "type": "bool"
        }
      ],
      "payable": false,
      "stateMutability": "view",
      "type": "function"
    },
    {
      "constant": false,
      "inputs": [],
      "name": "renounceOwnership",
      "outputs": [],
      "payable": false,
      "stateMutability": "nonpayable",
      "type": "function"
    },
    {
      "constant": false,
      "inputs": [],
      "name": "pause",
      "outputs": [],
      "payable": false,
      "stateMutability": "nonpayable",
      "type": "function"
    },
    {
      "constant": true,
      "inputs": [],
      "name": "owner",
      "outputs": [
        {
          "name": "",
          "type": "address"
        }
      ],
      "payable": false,
      "stateMutability": "view",
      "type": "function"
    },
    {
      "constant": true,
      "inputs": [],
      "name": "projectsCount",
      "outputs": [
        {
          "name": "",
          "type": "uint256"
        }
      ],
      "payable": false,
      "stateMutability": "view",
      "type": "function"
    },
    {
      "constant": false,
      "inputs": [
        {
          "name": "_newOwner",
          "type": "address"
        }
      ],
      "name": "transferOwnership",
      "outputs": [],
      "payable": false,
      "stateMutability": "nonpayable",
      "type": "function"
    },
    {
      "payable": true,
      "stateMutability": "payable",
      "type": "fallback"
    },
    {
      "anonymous": false,
      "inputs": [
        {
          "indexed": true,
          "name": "projectId",
          "type": "uint256"
        },
        {
          "indexed": true,
          "name": "name",
          "type": "string"
        },
        {
          "indexed": false,
          "name": "goalAmount",
          "type": "uint256"
        }
      ],
      "name": "NewProject",
      "type": "event"
    },
    {
      "anonymous": false,
      "inputs": [
        {
          "indexed": true,
          "name": "donor",
          "type": "address"
        },
        {
          "indexed": false,
          "name": "projectId",
          "type": "uint256"
        },
        {
          "indexed": false,
          "name": "amount",
          "type": "uint256"
        }
      ],
      "name": "Donated",
      "type": "event"
    },
    {
      "anonymous": false,
      "inputs": [
        {
          "indexed": true,
          "name": "from",
          "type": "address"
        },
        {
          "indexed": true,
          "name": "to",
          "type": "address"
        },
        {
          "indexed": false,
          "name": "tokens",
          "type": "uint256"
        }
      ],
      "name": "Withdraw",
      "type": "event"
    },
    {
      "anonymous": false,
      "inputs": [],
      "name": "Pause",
      "type": "event"
    },
    {
      "anonymous": false,
      "inputs": [],
      "name": "Unpause",
      "type": "event"
    },
    {
      "anonymous": false,
      "inputs": [
        {
          "indexed": true,
          "name": "previousOwner",
          "type": "address"
        }
      ],
      "name": "OwnershipRenounced",
      "type": "event"
    },
    {
      "anonymous": false,
      "inputs": [
        {
          "indexed": true,
          "name": "previousOwner",
          "type": "address"
        },
        {
          "indexed": true,
          "name": "newOwner",
          "type": "address"
        }
      ],
      "name": "OwnershipTransferred",
      "type": "event"
    },
    {
      "constant": false,
      "inputs": [
        {
          "name": "_name",
          "type": "string"
        },
        {
          "name": "_goalAmount",
          "type": "uint256"
        }
      ],
      "name": "_createProject",
      "outputs": [
        {
          "name": "",
          "type": "uint256"
        },
        {
          "name": "",
          "type": "string"
        },
        {
          "name": "",
          "type": "uint256"
        },
        {
          "name": "",
          "type": "uint256"
        },
        {
          "name": "",
          "type": "uint256"
        },
        {
          "name": "",
          "type": "address"
        },
        {
          "name": "",
          "type": "address"
        }
      ],
      "payable": false,
      "stateMutability": "nonpayable",
      "type": "function"
    },
    {
      "constant": false,
      "inputs": [
        {
          "name": "_id",
          "type": "uint256"
        },
        {
          "name": "amountToDonate",
          "type": "uint256"
        }
      ],
      "name": "donate",
      "outputs": [],
      "payable": false,
      "stateMutability": "nonpayable",
      "type": "function"
    },
    {
      "constant": false,
      "inputs": [
        {
          "name": "_projectId",
          "type": "uint256"
        },
        {
          "name": "_amountToWithdraw",
          "type": "uint256"
        }
      ],
      "name": "releaseDonation",
      "outputs": [
        {
          "name": "success",
          "type": "bool"
        }
      ],
      "payable": false,
      "stateMutability": "nonpayable",
      "type": "function"
    },
    {
      "constant": false,
      "inputs": [],
      "name": "kill",
      "outputs": [],
      "payable": false,
      "stateMutability": "nonpayable",
      "type": "function"
    }
  ],
  "bytecode": "0x608060405260008060146101000a81548160ff0219169083151502179055506000600255336000806101000a81548173ffffffffffffffffffffffffffffffffffffffff021916908373ffffffffffffffffffffffffffffffffffffffff160217905550611359806100726000396000f3006080604052600436106100af576000357c0100000000000000000000000000000000000000000000000000000000900463ffffffff1680630cdd53f61461011d5780633f4ba83a1461015457806341c0e1b51461016b5780635b09a602146101825780635c975abb146101d1578063715018a61461020057806376360ed0146102175780638456cb59146103855780638da5cb5b1461039c578063c73b302e146103f3578063f2fde38b1461041e575b6040517f08c379a00000000000000000000000000000000000000000000000000000000081526004018080602001828103825260108152602001807f446f6e277420616363657074204554480000000000000000000000000000000081525060200191505060405180910390fd5b34801561012957600080fd5b506101526004803603810190808035906020019092919080359060200190929190505050610461565b005b34801561016057600080fd5b506101696105f0565b005b34801561017757600080fd5b506101806106ae565b005b34801561018e57600080fd5b506101b76004803603810190808035906020019092919080359060200190929190505050610743565b604051808215151515815260200191505060405180910390f35b3480156101dd57600080fd5b506101e6610ac9565b604051808215151515815260200191505060405180910390f35b34801561020c57600080fd5b50610215610adc565b005b34801561022357600080fd5b50610288600480360381019080803590602001908201803590602001908080601f016020809104026020016040519081016040528093929190818152602001838380828437820191505050505050919291929080359060200190929190505050610bde565b60405180888152602001806020018781526020018681526020018581526020018473ffffffffffffffffffffffffffffffffffffffff1673ffffffffffffffffffffffffffffffffffffffff1681526020018373ffffffffffffffffffffffffffffffffffffffff1673ffffffffffffffffffffffffffffffffffffffff168152602001828103825288818151815260200191508051906020019080838360005b83811015610344578082015181840152602081019050610329565b50505050905090810190601f1680156103715780820380516001836020036101000a031916815260200191505b509850505050505050505060405180910390f35b34801561039157600080fd5b5061039a611023565b005b3480156103a857600080fd5b506103b16110e3565b604051808273ffffffffffffffffffffffffffffffffffffffff1673ffffffffffffffffffffffffffffffffffffffff16815260200191505060405180910390f35b3480156103ff57600080fd5b50610408611108565b6040518082815260200191505060405180910390f35b34801561042a57600080fd5b5061045f600480360381019080803573ffffffffffffffffffffffffffffffffffffffff16906020019092919050505061110e565b005b60008060149054906101000a900460ff1615151561047e57600080fd5b8073ffffffffffffffffffffffffffffffffffffffff166323b872dd336001600087815260200190815260200160002060060160009054906101000a900473ffffffffffffffffffffffffffffffffffffffff16856040518463ffffffff167c0100000000000000000000000000000000000000000000000000000000028152600401808473ffffffffffffffffffffffffffffffffffffffff1673ffffffffffffffffffffffffffffffffffffffff1681526020018373ffffffffffffffffffffffffffffffffffffffff1673ffffffffffffffffffffffffffffffffffffffff1681526020018281526020019350505050602060405180830381600087803b15801561058b57600080fd5b505af115801561059f573d6000803e3d6000fd5b505050506040513d60208110156105b557600080fd5b810190808051906020019092919050505050816001600085815260200190815260200160002060030160008282540192505081905550505050565b6000809054906101000a900473ffffffffffffffffffffffffffffffffffffffff1673ffffffffffffffffffffffffffffffffffffffff163373ffffffffffffffffffffffffffffffffffffffff1614151561064b57600080fd5b600060149054906101000a900460ff16151561066657600080fd5b60008060146101000a81548160ff0219169083151502179055507f7805862f689e2f13df9f062ff482ad3ad112aca9e0847911ed832e158c525b3360405160405180910390a1565b6000809054906101000a900473ffffffffffffffffffffffffffffffffffffffff1673ffffffffffffffffffffffffffffffffffffffff163373ffffffffffffffffffffffffffffffffffffffff1614151561070957600080fd5b6000809054906101000a900473ffffffffffffffffffffffffffffffffffffffff1673ffffffffffffffffffffffffffffffffffffffff16ff5b600080600060149054906101000a900460ff1615151561076257600080fd5b60016000858152602001908152602001600020600301548311151515610816576040517f08c379a00000000000000000000000000000000000000000000000000000000081526004018080602001828103825260318152602001807f63616e6e6f74207769746864726177206d6f7265207468616e2063757272656e81526020017f742070726f6a6563742062616c616e636500000000000000000000000000000081525060400191505060405180910390fd5b6001600085815260200190815260200160002060050160009054906101000a900473ffffffffffffffffffffffffffffffffffffffff1673ffffffffffffffffffffffffffffffffffffffff163373ffffffffffffffffffffffffffffffffffffffff16141515610915576040517f08c379a00000000000000000000000000000000000000000000000000000000081526004018080602001828103825260218152602001807f6f6e6c792070726f6a6563742063726561746f722063616e207769746864726181526020017f770000000000000000000000000000000000000000000000000000000000000081525060400191505060405180910390fd5b61093e83600160008781526020019081526020016000206003015461117590919063ffffffff16565b508073ffffffffffffffffffffffffffffffffffffffff166323b872dd6001600087815260200190815260200160002060060160009054906101000a900473ffffffffffffffffffffffffffffffffffffffff166001600088815260200190815260200160002060050160009054906101000a900473ffffffffffffffffffffffffffffffffffffffff16866040518463ffffffff167c0100000000000000000000000000000000000000000000000000000000028152600401808473ffffffffffffffffffffffffffffffffffffffff1673ffffffffffffffffffffffffffffffffffffffff1681526020018373ffffffffffffffffffffffffffffffffffffffff1673ffffffffffffffffffffffffffffffffffffffff1681526020018281526020019350505050602060405180830381600087803b158015610a8257600080fd5b505af1158015610a96573d6000803e3d6000fd5b505050506040513d6020811015610aac57600080fd5b810190808051906020019092919050505050600191505092915050565b600060149054906101000a900460ff1681565b6000809054906101000a900473ffffffffffffffffffffffffffffffffffffffff1673ffffffffffffffffffffffffffffffffffffffff163373ffffffffffffffffffffffffffffffffffffffff16141515610b3757600080fd5b6000809054906101000a900473ffffffffffffffffffffffffffffffffffffffff1673ffffffffffffffffffffffffffffffffffffffff167ff8df31144d9c2f0f6b59d69b8b98abd5459d07f2742c4df920b25aae33c6482060405160405180910390a260008060006101000a81548173ffffffffffffffffffffffffffffffffffffffff021916908373ffffffffffffffffffffffffffffffffffffffff160217905550565b6000606060008060008060008060149054906101000a900460ff16151515610c0557600080fd5b60026000815480929190600101919050555060e06040519081016040528060025481526020018a815260200189815260200160008152602001600081526020013373ffffffffffffffffffffffffffffffffffffffff168152602001600333604051602001808273ffffffffffffffffffffffffffffffffffffffff1673ffffffffffffffffffffffffffffffffffffffff166c010000000000000000000000000281526014019150506040516020818303038152906040526040518082805190602001908083835b602083101515610cf35780518252602082019150602081019050602083039250610cce565b6001836020036101000a0380198251168184511680821785525050505050509050019150506020604051808303816000865af1158015610d37573d6000803e3d6000fd5b505050604051516c01000000000000000000000000026c01000000000000000000000000900473ffffffffffffffffffffffffffffffffffffffff16815250600160006002548152602001908152602001600020600082015181600001556020820151816001019080519060200190610db1929190611288565b5060408201518160020155606082015181600301556080820151816004015560a08201518160050160006101000a81548173ffffffffffffffffffffffffffffffffffffffff021916908373ffffffffffffffffffffffffffffffffffffffff16021790555060c08201518160060160006101000a81548173ffffffffffffffffffffffffffffffffffffffff021916908373ffffffffffffffffffffffffffffffffffffffff160217905550905050886040518082805190602001908083835b602083101515610e975780518252602082019150602081019050602083039250610e72565b6001836020036101000a03801982511681845116808217855250505050505090500191505060405180910390206002547f53ed3d0785095a76fbc06ecc1faae83e538d870714b47cf0c089a604ae5f56328a6040518082815260200191505060405180910390a3600254898960008033600333604051602001808273ffffffffffffffffffffffffffffffffffffffff1673ffffffffffffffffffffffffffffffffffffffff166c010000000000000000000000000281526014019150506040516020818303038152906040526040518082805190602001908083835b602083101515610f995780518252602082019150602081019050602083039250610f74565b6001836020036101000a0380198251168184511680821785525050505050509050019150506020604051808303816000865af1158015610fdd573d6000803e3d6000fd5b505050604051516c01000000000000000000000000026c010000000000000000000000009004839350829250965096509650965096509650965092959891949750929550565b6000809054906101000a900473ffffffffffffffffffffffffffffffffffffffff1673ffffffffffffffffffffffffffffffffffffffff163373ffffffffffffffffffffffffffffffffffffffff1614151561107e57600080fd5b600060149054906101000a900460ff1615151561109a57600080fd5b6001600060146101000a81548160ff0219169083151502179055507f6985a02210a168e66602d3235cb6db0e70f92b3ba4d376a33c0f3d9434bff62560405160405180910390a1565b6000809054906101000a900473ffffffffffffffffffffffffffffffffffffffff1681565b60025481565b6000809054906101000a900473ffffffffffffffffffffffffffffffffffffffff1673ffffffffffffffffffffffffffffffffffffffff163373ffffffffffffffffffffffffffffffffffffffff1614151561116957600080fd5b6111728161118e565b50565b600082821115151561118357fe5b818303905092915050565b600073ffffffffffffffffffffffffffffffffffffffff168173ffffffffffffffffffffffffffffffffffffffff16141515156111ca57600080fd5b8073ffffffffffffffffffffffffffffffffffffffff166000809054906101000a900473ffffffffffffffffffffffffffffffffffffffff1673ffffffffffffffffffffffffffffffffffffffff167f8be0079c531659141344cd1fd0a4f28419497f9722a3daafe3b4186f6b6457e060405160405180910390a3806000806101000a81548173ffffffffffffffffffffffffffffffffffffffff021916908373ffffffffffffffffffffffffffffffffffffffff16021790555050565b828054600181600116156101000203166002900490600052602060002090601f016020900481019282601f106112c957805160ff19168380011785556112f7565b828001600101855582156112f7579182015b828111156112f65782518255916020019190600101906112db565b5b5090506113049190611308565b5090565b61132a91905b8082111561132657600081600090555060010161130e565b5090565b905600a165627a7a72305820cd2fea554bfe9dffa0b47df44d047db6ea56e629f5ac31ba9642716e472d17b00029",
  "source": "pragma solidity ^0.4.19;\n\nimport \"node_modules/openzeppelin-solidity/contracts/lifecycle/Pausable.sol\";\nimport \"contracts/BenevoToken.sol\";\nimport \"node_modules/openzeppelin-solidity/contracts/math/SafeMath.sol\";\n\n// pausable enables emergency stop\ncontract BenevoProjects is Pausable {\n\n    //all arithmetic operation in this contract uses Openzeppelin's SafeMath library\n    using SafeMath for uint;\n    \n    event NewProject(uint indexed projectId, string indexed name, uint goalAmount);\n    event Donated(address indexed donor, uint projectId, uint amount);\n    event Withdraw(address indexed from, address indexed to, uint tokens); \n\n    struct Project {\n        uint id;\n        string name;\n        uint goalAmount;\n        uint currentAmount;\n        uint currentBalance;\n        address ownerAddress;\n        address projectAddress;\n    }\n\n    mapping (uint => Project) projects;\n\n    uint public projectsCount = 0;\n\n    /** @dev Create a new project with a BenevoToken contractAccount\n      * @param _name The name of the project\n      * @param _goalAmount Goal amount of BenevoToken to be donated\n    */\n    \n    function _createProject(string _name, uint _goalAmount) \n    public whenNotPaused returns(uint, string, uint, uint, uint, address, address){\n        projectsCount ++;\n        projects[projectsCount] = Project(projectsCount, _name, _goalAmount, 0, 0, msg.sender, address(ripemd160(abi.encodePacked(msg.sender))));\n        emit NewProject(projectsCount, _name, _goalAmount);\n        return (projectsCount, _name, _goalAmount, 0, 0, msg.sender, address(ripemd160(abi.encodePacked(msg.sender))));\n    }\n\n    /** @dev Donate BenevoToken to the project\n      * @param _id The id of the project\n      * @param amountToDonate Amount of BenevoToken to donate to the project\n    */\n    function donate(uint _id, uint amountToDonate) public whenNotPaused {\n        BenevoToken bnt;\n        bnt.transferFrom(msg.sender, projects[_id].projectAddress, amountToDonate);\n        projects[_id].currentAmount += amountToDonate;\n    }\n\n    /** @dev Release the escrowed donation to the project owner \n        @param _projectId Project ID\n        @param _amountToWithdraw Amount of BenevoToken to be released\n    */\n    function releaseDonation(uint _projectId, uint _amountToWithdraw) public whenNotPaused returns (bool success){\n        BenevoToken bnt;\n        require(_amountToWithdraw <= projects[_projectId].currentAmount, \"cannot withdraw more than current project balance\");\n        require(msg.sender == projects[_projectId].ownerAddress, \"only project creator can withdraw\");\n        //Subtract withdraw amount before releasing token to prevent re-entrancy attack\n        projects[_projectId].currentAmount.sub(_amountToWithdraw);\n        bnt.transferFrom(projects[_projectId].projectAddress, projects[_projectId].ownerAddress, _amountToWithdraw);\n        return true;\n    }\n\n    /**\n        @notice Eth payable fallback\n    */\n\n    function () public payable {\n        revert(\"Don't accept ETH\");\n    }\n\n    //kill the smart contract\n    function kill() public onlyOwner {\n        selfdestruct(owner);\n    }\n}",
  "sourcePath": "/home/masaki/Downloads/BenevoProjects/contracts/BenevoProjects.sol",
  "compiler": {
    "name": "solc",
    "version": "0.4.24+commit.e67f0147.Emscripten.clang"
  },
  "schemaVersion": "2.0.1",
  "updatedAt": "2018-08-09T16:18:42.923Z"
}