{
  "contractName": "BenevoProjects",
  "abi": [
    {
      "constant": false,
      "inputs": [],
      "name": "unpause",
      "outputs": [],
      "payable": false,
      "stateMutability": "nonpayable",
      "type": "function"
    },
    {
      "constant": true,
      "inputs": [],
      "name": "paused",
      "outputs": [
        {
          "name": "",
          "type": "bool"
        }
      ],
      "payable": false,
      "stateMutability": "view",
      "type": "function"
    },
    {
      "constant": false,
      "inputs": [],
      "name": "renounceOwnership",
      "outputs": [],
      "payable": false,
      "stateMutability": "nonpayable",
      "type": "function"
    },
    {
      "constant": false,
      "inputs": [],
      "name": "pause",
      "outputs": [],
      "payable": false,
      "stateMutability": "nonpayable",
      "type": "function"
    },
    {
      "constant": true,
      "inputs": [],
      "name": "owner",
      "outputs": [
        {
          "name": "",
          "type": "address"
        }
      ],
      "payable": false,
      "stateMutability": "view",
      "type": "function"
    },
    {
      "constant": true,
      "inputs": [],
      "name": "projectsCount",
      "outputs": [
        {
          "name": "",
          "type": "uint256"
        }
      ],
      "payable": false,
      "stateMutability": "view",
      "type": "function"
    },
    {
      "constant": false,
      "inputs": [
        {
          "name": "_newOwner",
          "type": "address"
        }
      ],
      "name": "transferOwnership",
      "outputs": [],
      "payable": false,
      "stateMutability": "nonpayable",
      "type": "function"
    },
    {
      "inputs": [],
      "payable": false,
      "stateMutability": "nonpayable",
      "type": "constructor"
    },
    {
      "payable": true,
      "stateMutability": "payable",
      "type": "fallback"
    },
    {
      "anonymous": false,
      "inputs": [
        {
          "indexed": true,
          "name": "projectId",
          "type": "uint256"
        },
        {
          "indexed": true,
          "name": "name",
          "type": "string"
        },
        {
          "indexed": false,
          "name": "goalAmount",
          "type": "uint256"
        },
        {
          "indexed": false,
          "name": "owner",
          "type": "address"
        }
      ],
      "name": "NewProject",
      "type": "event"
    },
    {
      "anonymous": false,
      "inputs": [
        {
          "indexed": true,
          "name": "donor",
          "type": "address"
        },
        {
          "indexed": false,
          "name": "projectId",
          "type": "uint256"
        },
        {
          "indexed": false,
          "name": "amount",
          "type": "uint256"
        }
      ],
      "name": "Donated",
      "type": "event"
    },
    {
      "anonymous": false,
      "inputs": [
        {
          "indexed": true,
          "name": "from",
          "type": "address"
        },
        {
          "indexed": true,
          "name": "to",
          "type": "address"
        },
        {
          "indexed": false,
          "name": "tokens",
          "type": "uint256"
        }
      ],
      "name": "Withdraw",
      "type": "event"
    },
    {
      "anonymous": false,
      "inputs": [],
      "name": "Pause",
      "type": "event"
    },
    {
      "anonymous": false,
      "inputs": [],
      "name": "Unpause",
      "type": "event"
    },
    {
      "anonymous": false,
      "inputs": [
        {
          "indexed": true,
          "name": "previousOwner",
          "type": "address"
        }
      ],
      "name": "OwnershipRenounced",
      "type": "event"
    },
    {
      "anonymous": false,
      "inputs": [
        {
          "indexed": true,
          "name": "previousOwner",
          "type": "address"
        },
        {
          "indexed": true,
          "name": "newOwner",
          "type": "address"
        }
      ],
      "name": "OwnershipTransferred",
      "type": "event"
    },
    {
      "constant": true,
      "inputs": [
        {
          "name": "_id",
          "type": "uint256"
        }
      ],
      "name": "getProject",
      "outputs": [
        {
          "name": "",
          "type": "string"
        },
        {
          "name": "",
          "type": "uint256"
        },
        {
          "name": "",
          "type": "uint256"
        },
        {
          "name": "",
          "type": "uint256"
        },
        {
          "name": "",
          "type": "address"
        },
        {
          "name": "",
          "type": "address"
        },
        {
          "name": "",
          "type": "bool"
        }
      ],
      "payable": false,
      "stateMutability": "view",
      "type": "function"
    },
    {
      "constant": false,
      "inputs": [
        {
          "name": "_name",
          "type": "string"
        },
        {
          "name": "_goalAmount",
          "type": "uint256"
        }
      ],
      "name": "_createProject",
      "outputs": [
        {
          "name": "",
          "type": "uint256"
        },
        {
          "name": "",
          "type": "string"
        },
        {
          "name": "",
          "type": "uint256"
        },
        {
          "name": "",
          "type": "uint256"
        },
        {
          "name": "",
          "type": "uint256"
        },
        {
          "name": "",
          "type": "address"
        },
        {
          "name": "",
          "type": "address"
        }
      ],
      "payable": false,
      "stateMutability": "nonpayable",
      "type": "function"
    },
    {
      "constant": false,
      "inputs": [
        {
          "name": "_id",
          "type": "uint256"
        },
        {
          "name": "amountToDonate",
          "type": "uint256"
        }
      ],
      "name": "donate",
      "outputs": [
        {
          "name": "newBalance",
          "type": "uint256"
        }
      ],
      "payable": false,
      "stateMutability": "nonpayable",
      "type": "function"
    },
    {
      "constant": false,
      "inputs": [
        {
          "name": "_projectId",
          "type": "uint256"
        },
        {
          "name": "amountToRelease",
          "type": "uint256"
        }
      ],
      "name": "releaseDonation",
      "outputs": [
        {
          "name": "success",
          "type": "bool"
        }
      ],
      "payable": false,
      "stateMutability": "nonpayable",
      "type": "function"
    },
    {
      "constant": false,
      "inputs": [],
      "name": "withdrawToken",
      "outputs": [],
      "payable": false,
      "stateMutability": "nonpayable",
      "type": "function"
    },
    {
      "constant": false,
      "inputs": [],
      "name": "kill",
      "outputs": [],
      "payable": false,
      "stateMutability": "nonpayable",
      "type": "function"
    }
  ],
  "bytecode": "0x608060405260008060146101000a81548160ff021916908315150217905550600060045534801561002f57600080fd5b50336000806101000a81548173ffffffffffffffffffffffffffffffffffffffff021916908373ffffffffffffffffffffffffffffffffffffffff16021790555033600160006101000a81548173ffffffffffffffffffffffffffffffffffffffff021916908373ffffffffffffffffffffffffffffffffffffffff160217905550611ef6806100c06000396000f3006080604052600436106100c5576000357c0100000000000000000000000000000000000000000000000000000000900463ffffffff1680630cdd53f6146101335780633f4ba83a1461017e57806341c0e1b5146101955780635b09a602146101ac5780635c975abb146101fb578063715018a61461022a57806376360ed0146102415780638456cb59146103af5780638da5cb5b146103c6578063c73b302e1461041d578063ca628c7814610448578063f0f3f2c81461045f578063f2fde38b1461058b575b6040517f08c379a00000000000000000000000000000000000000000000000000000000081526004018080602001828103825260108152602001807f446f6e277420616363657074204554480000000000000000000000000000000081525060200191505060405180910390fd5b34801561013f57600080fd5b5061016860048036038101908080359060200190929190803590602001909291905050506105ce565b6040518082815260200191505060405180910390f35b34801561018a57600080fd5b50610193610817565b005b3480156101a157600080fd5b506101aa6108d5565b005b3480156101b857600080fd5b506101e1600480360381019080803590602001909291908035906020019092919050505061096a565b604051808215151515815260200191505060405180910390f35b34801561020757600080fd5b50610210610ccf565b604051808215151515815260200191505060405180910390f35b34801561023657600080fd5b5061023f610ce2565b005b34801561024d57600080fd5b506102b2600480360381019080803590602001908201803590602001908080601f016020809104026020016040519081016040528093929190818152602001838380828437820191505050505050919291929080359060200190929190505050610de4565b60405180888152602001806020018781526020018681526020018581526020018473ffffffffffffffffffffffffffffffffffffffff1673ffffffffffffffffffffffffffffffffffffffff1681526020018373ffffffffffffffffffffffffffffffffffffffff1673ffffffffffffffffffffffffffffffffffffffff168152602001828103825288818151815260200191508051906020019080838360005b8381101561036e578082015181840152602081019050610353565b50505050905090810190601f16801561039b5780820380516001836020036101000a031916815260200191505b509850505050505050505060405180910390f35b3480156103bb57600080fd5b506103c4611429565b005b3480156103d257600080fd5b506103db6114e9565b604051808273ffffffffffffffffffffffffffffffffffffffff1673ffffffffffffffffffffffffffffffffffffffff16815260200191505060405180910390f35b34801561042957600080fd5b5061043261150e565b6040518082815260200191505060405180910390f35b34801561045457600080fd5b5061045d611514565b005b34801561046b57600080fd5b5061048a600480360381019080803590602001909291905050506119c3565b60405180806020018881526020018781526020018681526020018573ffffffffffffffffffffffffffffffffffffffff1673ffffffffffffffffffffffffffffffffffffffff1681526020018473ffffffffffffffffffffffffffffffffffffffff1673ffffffffffffffffffffffffffffffffffffffff16815260200183151515158152602001828103825289818151815260200191508051906020019080838360005b8381101561054a57808201518184015260208101905061052f565b50505050905090810190601f1680156105775780820380516001836020036101000a031916815260200191505b509850505050505050505060405180910390f35b34801561059757600080fd5b506105cc600480360381019080803573ffffffffffffffffffffffffffffffffffffffff169060200190929190505050611bc9565b005b60008060149054906101000a900460ff161515156105eb57600080fd5b6000831180156105fd57506004548311155b1515610671576040517f08c379a000000000000000000000000000000000000000000000000000000000815260040180806020018281038252601b8152602001807f6e6f7420612076616c69642070726f6a6563742061646472657373000000000081525060200191505060405180910390fd5b33600160006101000a81548173ffffffffffffffffffffffffffffffffffffffff021916908373ffffffffffffffffffffffffffffffffffffffff160217905550600160009054906101000a900473ffffffffffffffffffffffffffffffffffffffff1673ffffffffffffffffffffffffffffffffffffffff1663a9059cbb6002600086815260200190815260200160002060060160009054906101000a900473ffffffffffffffffffffffffffffffffffffffff16846040518363ffffffff167c0100000000000000000000000000000000000000000000000000000000028152600401808373ffffffffffffffffffffffffffffffffffffffff1673ffffffffffffffffffffffffffffffffffffffff16815260200182815260200192505050602060405180830381600087803b1580156107ad57600080fd5b505af11580156107c1573d6000803e3d6000fd5b505050506040513d60208110156107d757600080fd5b8101908080519060200190929190505050508160026000858152602001908152602001600020600301600082825401925050819055905080905092915050565b6000809054906101000a900473ffffffffffffffffffffffffffffffffffffffff1673ffffffffffffffffffffffffffffffffffffffff163373ffffffffffffffffffffffffffffffffffffffff1614151561087257600080fd5b600060149054906101000a900460ff16151561088d57600080fd5b60008060146101000a81548160ff0219169083151502179055507f7805862f689e2f13df9f062ff482ad3ad112aca9e0847911ed832e158c525b3360405160405180910390a1565b6000809054906101000a900473ffffffffffffffffffffffffffffffffffffffff1673ffffffffffffffffffffffffffffffffffffffff163373ffffffffffffffffffffffffffffffffffffffff1614151561093057600080fd5b6000809054906101000a900473ffffffffffffffffffffffffffffffffffffffff1673ffffffffffffffffffffffffffffffffffffffff16ff5b6000610974611d2a565b600060149054906101000a900460ff1615151561099057600080fd5b60026000858152602001908152602001600020610100604051908101604052908160008201548152602001600182018054600181600116156101000203166002900480601f016020809104026020016040519081016040528092919081815260200182805460018160011615610100020316600290048015610a535780601f10610a2857610100808354040283529160200191610a53565b820191906000526020600020905b815481529060010190602001808311610a3657829003601f168201915b505050505081526020016002820154815260200160038201548152602001600482015481526020016005820160009054906101000a900473ffffffffffffffffffffffffffffffffffffffff1673ffffffffffffffffffffffffffffffffffffffff1673ffffffffffffffffffffffffffffffffffffffff1681526020016006820160009054906101000a900473ffffffffffffffffffffffffffffffffffffffff1673ffffffffffffffffffffffffffffffffffffffff1673ffffffffffffffffffffffffffffffffffffffff1681526020016006820160149054906101000a900460ff161515151581525050905080606001518311151515610be5576040517f08c379a00000000000000000000000000000000000000000000000000000000081526004018080602001828103825260318152602001807f63616e6e6f74207769746864726177206d6f7265207468616e2063757272656e81526020017f742070726f6a6563742062616c616e636500000000000000000000000000000081525060400191505060405180910390fd5b8060a0015173ffffffffffffffffffffffffffffffffffffffff163373ffffffffffffffffffffffffffffffffffffffff1614151515610cb3576040517f08c379a00000000000000000000000000000000000000000000000000000000081526004018080602001828103825260308152602001807f6f6e6c79206e6f6e2d70726f6a656374206f776e65722063616e2063616c6c2081526020017f72656c6561736520446f6e6174696f6e0000000000000000000000000000000081525060400191505060405180910390fd5b60018160e0019015159081151581525050600191505092915050565b600060149054906101000a900460ff1681565b6000809054906101000a900473ffffffffffffffffffffffffffffffffffffffff1673ffffffffffffffffffffffffffffffffffffffff163373ffffffffffffffffffffffffffffffffffffffff16141515610d3d57600080fd5b6000809054906101000a900473ffffffffffffffffffffffffffffffffffffffff1673ffffffffffffffffffffffffffffffffffffffff167ff8df31144d9c2f0f6b59d69b8b98abd5459d07f2742c4df920b25aae33c6482060405160405180910390a260008060006101000a81548173ffffffffffffffffffffffffffffffffffffffff021916908373ffffffffffffffffffffffffffffffffffffffff160217905550565b6000606060008060008060008060149054906101000a900460ff16151515610e0b57600080fd5b6004600081548092919060010191905055506101006040519081016040528060045481526020018a815260200189815260200160008152602001600081526020013373ffffffffffffffffffffffffffffffffffffffff168152602001600333604051602001808273ffffffffffffffffffffffffffffffffffffffff1673ffffffffffffffffffffffffffffffffffffffff166c010000000000000000000000000281526014019150506040516020818303038152906040526040518082805190602001908083835b602083101515610efa5780518252602082019150602081019050602083039250610ed5565b6001836020036101000a0380198251168184511680821785525050505050509050019150506020604051808303816000865af1158015610f3e573d6000803e3d6000fd5b505050604051516c01000000000000000000000000026c01000000000000000000000000900473ffffffffffffffffffffffffffffffffffffffff16815260200160001515815250600260006004548152602001908152602001600020600082015181600001556020820151816001019080519060200190610fc1929190611d9e565b5060408201518160020155606082015181600301556080820151816004015560a08201518160050160006101000a81548173ffffffffffffffffffffffffffffffffffffffff021916908373ffffffffffffffffffffffffffffffffffffffff16021790555060c08201518160060160006101000a81548173ffffffffffffffffffffffffffffffffffffffff021916908373ffffffffffffffffffffffffffffffffffffffff16021790555060e08201518160060160146101000a81548160ff021916908315150217905550905050600260006004548152602001908152602001600020600360003373ffffffffffffffffffffffffffffffffffffffff1673ffffffffffffffffffffffffffffffffffffffff1681526020019081526020016000206000820154816000015560018201816001019080546001816001161561010002031660029004611116929190611e1e565b506002820154816002015560038201548160030155600482015481600401556005820160009054906101000a900473ffffffffffffffffffffffffffffffffffffffff168160050160006101000a81548173ffffffffffffffffffffffffffffffffffffffff021916908373ffffffffffffffffffffffffffffffffffffffff1602179055506006820160009054906101000a900473ffffffffffffffffffffffffffffffffffffffff168160060160006101000a81548173ffffffffffffffffffffffffffffffffffffffff021916908373ffffffffffffffffffffffffffffffffffffffff1602179055506006820160149054906101000a900460ff168160060160146101000a81548160ff021916908315150217905550905050886040518082805190602001908083835b6020831015156112695780518252602082019150602081019050602083039250611244565b6001836020036101000a03801982511681845116808217855250505050505090500191505060405180910390206004547fdfeb86e32410697285e84e83f636c2a27b16b9f0663d06fd01b0946f26849da98a33604051808381526020018273ffffffffffffffffffffffffffffffffffffffff1673ffffffffffffffffffffffffffffffffffffffff1681526020019250505060405180910390a3600454898960008033600333604051602001808273ffffffffffffffffffffffffffffffffffffffff1673ffffffffffffffffffffffffffffffffffffffff166c010000000000000000000000000281526014019150506040516020818303038152906040526040518082805190602001908083835b60208310151561139f578051825260208201915060208101905060208303925061137a565b6001836020036101000a0380198251168184511680821785525050505050509050019150506020604051808303816000865af11580156113e3573d6000803e3d6000fd5b505050604051516c01000000000000000000000000026c010000000000000000000000009004839350829250965096509650965096509650965092959891949750929550565b6000809054906101000a900473ffffffffffffffffffffffffffffffffffffffff1673ffffffffffffffffffffffffffffffffffffffff163373ffffffffffffffffffffffffffffffffffffffff1614151561148457600080fd5b600060149054906101000a900460ff161515156114a057600080fd5b6001600060146101000a81548160ff0219169083151502179055507f6985a02210a168e66602d3235cb6db0e70f92b3ba4d376a33c0f3d9434bff62560405160405180910390a1565b6000809054906101000a900473ffffffffffffffffffffffffffffffffffffffff1681565b60045481565b61151c611d2a565b60008160a0015173ffffffffffffffffffffffffffffffffffffffff163373ffffffffffffffffffffffffffffffffffffffff161415156115eb576040517f08c379a00000000000000000000000000000000000000000000000000000000081526004018080602001828103825260268152602001807f6f6e6c792070726f6a6563742063726561746f722063616e2063616c6c20776981526020017f746864726177000000000000000000000000000000000000000000000000000081525060400191505060405180910390fd5b600360003373ffffffffffffffffffffffffffffffffffffffff1673ffffffffffffffffffffffffffffffffffffffff168152602001908152602001600020610100604051908101604052908160008201548152602001600182018054600181600116156101000203166002900480601f0160208091040260200160405190810160405280929190818152602001828054600181600116156101000203166002900480156116da5780601f106116af576101008083540402835291602001916116da565b820191906000526020600020905b8154815290600101906020018083116116bd57829003601f168201915b505050505081526020016002820154815260200160038201548152602001600482015481526020016005820160009054906101000a900473ffffffffffffffffffffffffffffffffffffffff1673ffffffffffffffffffffffffffffffffffffffff1673ffffffffffffffffffffffffffffffffffffffff1681526020016006820160009054906101000a900473ffffffffffffffffffffffffffffffffffffffff1673ffffffffffffffffffffffffffffffffffffffff1673ffffffffffffffffffffffffffffffffffffffff1681526020016006820160149054906101000a900460ff1615151515815250509150600115158260e001511515141515611870576040517f08c379a00000000000000000000000000000000000000000000000000000000081526004018080602001828103825260248152602001807f646f6e6174696f6e206e6f742072656c656173656420666f722077697468647281526020017f6177616c0000000000000000000000000000000000000000000000000000000081525060400191505060405180910390fd5b816080015190506000826080018181525050600160009054906101000a900473ffffffffffffffffffffffffffffffffffffffff1673ffffffffffffffffffffffffffffffffffffffff166323b872dd8360c001518460a00151846040518463ffffffff167c0100000000000000000000000000000000000000000000000000000000028152600401808473ffffffffffffffffffffffffffffffffffffffff1673ffffffffffffffffffffffffffffffffffffffff1681526020018373ffffffffffffffffffffffffffffffffffffffff1673ffffffffffffffffffffffffffffffffffffffff1681526020018281526020019350505050602060405180830381600087803b15801561198357600080fd5b505af1158015611997573d6000803e3d6000fd5b505050506040513d60208110156119ad57600080fd5b8101908080519060200190929190505050505050565b60606000806000806000806119d6611d2a565b600260008a8152602001908152602001600020610100604051908101604052908160008201548152602001600182018054600181600116156101000203166002900480601f016020809104026020016040519081016040528092919081815260200182805460018160011615610100020316600290048015611a995780601f10611a6e57610100808354040283529160200191611a99565b820191906000526020600020905b815481529060010190602001808311611a7c57829003601f168201915b505050505081526020016002820154815260200160038201548152602001600482015481526020016005820160009054906101000a900473ffffffffffffffffffffffffffffffffffffffff1673ffffffffffffffffffffffffffffffffffffffff1673ffffffffffffffffffffffffffffffffffffffff1681526020016006820160009054906101000a900473ffffffffffffffffffffffffffffffffffffffff1673ffffffffffffffffffffffffffffffffffffffff1673ffffffffffffffffffffffffffffffffffffffff1681526020016006820160149054906101000a900460ff161515151581525050905080602001518160400151826060015183608001518460a001518560c001518660e00151869650975097509750975097509750975050919395979092949650565b6000809054906101000a900473ffffffffffffffffffffffffffffffffffffffff1673ffffffffffffffffffffffffffffffffffffffff163373ffffffffffffffffffffffffffffffffffffffff16141515611c2457600080fd5b611c2d81611c30565b50565b600073ffffffffffffffffffffffffffffffffffffffff168173ffffffffffffffffffffffffffffffffffffffff1614151515611c6c57600080fd5b8073ffffffffffffffffffffffffffffffffffffffff166000809054906101000a900473ffffffffffffffffffffffffffffffffffffffff1673ffffffffffffffffffffffffffffffffffffffff167f8be0079c531659141344cd1fd0a4f28419497f9722a3daafe3b4186f6b6457e060405160405180910390a3806000806101000a81548173ffffffffffffffffffffffffffffffffffffffff021916908373ffffffffffffffffffffffffffffffffffffffff16021790555050565b610100604051908101604052806000815260200160608152602001600081526020016000815260200160008152602001600073ffffffffffffffffffffffffffffffffffffffff168152602001600073ffffffffffffffffffffffffffffffffffffffff1681526020016000151581525090565b828054600181600116156101000203166002900490600052602060002090601f016020900481019282601f10611ddf57805160ff1916838001178555611e0d565b82800160010185558215611e0d579182015b82811115611e0c578251825591602001919060010190611df1565b5b509050611e1a9190611ea5565b5090565b828054600181600116156101000203166002900490600052602060002090601f016020900481019282601f10611e575780548555611e94565b82800160010185558215611e9457600052602060002091601f016020900482015b82811115611e93578254825591600101919060010190611e78565b5b509050611ea19190611ea5565b5090565b611ec791905b80821115611ec3576000816000905550600101611eab565b5090565b905600a165627a7a7230582097e694be3ca9184519c4c8218e2b8401aae55bb56837ca1edcb0a61df4c014b70029",
  "source": "pragma solidity ^0.4.19;\n\nimport \"node_modules/openzeppelin-solidity/contracts/lifecycle/Pausable.sol\";\nimport \"node_modules/openzeppelin-solidity/contracts/math/SafeMath.sol\";\nimport \"contracts/BenevoToken.sol\";\n\n\n// pausable enables emergency stop\ncontract BenevoProjects is Pausable {\n\n    BenevoToken bnt;\n\n    //all arithmetic operation in this contract uses Openzeppelin's SafeMath library\n    using SafeMath for uint;\n    \n    event NewProject(uint indexed projectId, string indexed name, uint goalAmount, address owner);\n    event Donated(address indexed donor, uint projectId, uint amount);\n    event Withdraw(address indexed from, address indexed to, uint tokens); \n\n    //currentAmount is total amount of token donated. currentBalnace is currentAmount minus tokens the owner already withdrew\n    struct Project {\n        uint id;\n        string name;\n        uint goalAmount;\n        uint currentAmount;\n        uint currentBalance;\n        address ownerAddress;\n        address projectAddress;\n        bool canWithdraw;\n    }\n\n    mapping (uint => Project) projects;\n    mapping (address => Project) owners;\n\n    uint public projectsCount = 0;\n\n    constructor () public{\n        bnt = BenevoToken(msg.sender);\n    }\n\n    /** @dev Project getter\n        @param _id Project id\n    */\n    function getProject(uint _id) public view returns (string, uint, uint, uint, address, address, bool){\n        Project memory project = projects[_id];\n        return (project.name, project.goalAmount, project.currentAmount, project.currentBalance, \n        project.ownerAddress, project.projectAddress, project.canWithdraw);\n    }\n\n    /** @dev Create a new project with a BenevoToken contractAccount\n      * @param _name The name of the project\n      * @param _goalAmount Goal amount of BenevoToken to be donated\n    */\n    \n    function _createProject(string _name, uint _goalAmount) \n    public whenNotPaused returns(uint, string, uint, uint, uint, address, address){\n        projectsCount ++;\n        projects[projectsCount] = Project(projectsCount, _name, _goalAmount, 0, 0, msg.sender,\n            address(ripemd160(abi.encodePacked(msg.sender))), false);\n        owners[msg.sender] = projects[projectsCount];\n        emit NewProject(projectsCount, _name, _goalAmount, msg.sender);\n        return (projectsCount, _name, _goalAmount, 0, 0, msg.sender, address(ripemd160(abi.encodePacked(msg.sender))));\n    }\n\n    /** @dev Donate BenevoToken to the project\n      * @param _id The id of the project\n      * @param amountToDonate Amount of BenevoToken to donate to the project\n    */\n    function donate(uint _id, uint amountToDonate) public whenNotPaused returns (uint newBalance){\n        require(_id > 0 && _id <= projectsCount, \"not a valid project address\");\n        //bnt.transferFrom(msg.sender, projects[_id].projectAddress, amountToDonate);\n        bnt = BenevoToken(msg.sender);\n        bnt.transfer(projects[_id].projectAddress, amountToDonate);\n        newBalance = projects[_id].currentAmount += amountToDonate;\n        return newBalance;\n    }\n\n    /** @dev Release the escrowed donation to the project owner \n        @param _projectId Project ID\n        @param amountToRelease Amount of BenevoToken to be released\n    */\n\n    function releaseDonation(uint _projectId, uint amountToRelease) public whenNotPaused returns (bool success){\n        Project memory project = projects[_projectId];\n        require(amountToRelease <= project.currentAmount, \"cannot withdraw more than current project balance\");\n        require(msg.sender != project.ownerAddress, \"only non-project owner can call release Donation\");\n        project.canWithdraw = true;\n        return true;\n    }\n\n    /** @dev project owner can withdraw all the tokens that were released\n     */\n\n    function withdrawToken() external{\n        require(msg.sender == project.ownerAddress, \"only project creator can call withdraw\");\n        Project memory project = owners[msg.sender];\n        require(project.canWithdraw == true, \"donation not released for withdrawal\");\n        uint withdrawAmount = project.currentBalance;\n        //Subtract withdraw amount before releasing token to for best practice\n        project.currentBalance = 0;\n        bnt.transferFrom(project.projectAddress, project.ownerAddress, withdrawAmount);\n    }\n\n    /** @dev Eth payable fallback\n    */\n\n    function () public payable {\n        revert(\"Don't accept ETH\");\n    }\n\n    /** @dev kill the contract\n    */\n    function kill() public onlyOwner {\n        selfdestruct(owner);\n    }\n}",
  "sourcePath": "/home/masaki/Downloads/BenevoProjects/contracts/BenevoProjects.sol",
  "compiler": {
    "name": "solc",
    "version": "0.4.24+commit.e67f0147.Emscripten.clang"
  },
  "schemaVersion": "2.0.1",
  "updatedAt": "2018-08-16T14:33:55.210Z"
}