{
  "contractName": "BenevoProjects",
  "abi": [
    {
      "constant": true,
      "inputs": [
        {
          "name": "",
          "type": "uint256"
        }
      ],
      "name": "projects",
      "outputs": [
        {
          "name": "id",
          "type": "uint256"
        },
        {
          "name": "name",
          "type": "string"
        },
        {
          "name": "goalAmount",
          "type": "uint256"
        },
        {
          "name": "currentAmount",
          "type": "uint256"
        },
        {
          "name": "ownerAddress",
          "type": "address"
        }
      ],
      "payable": false,
      "stateMutability": "view",
      "type": "function"
    },
    {
      "constant": false,
      "inputs": [],
      "name": "unpause",
      "outputs": [],
      "payable": false,
      "stateMutability": "nonpayable",
      "type": "function"
    },
    {
      "constant": true,
      "inputs": [],
      "name": "paused",
      "outputs": [
        {
          "name": "",
          "type": "bool"
        }
      ],
      "payable": false,
      "stateMutability": "view",
      "type": "function"
    },
    {
      "constant": false,
      "inputs": [],
      "name": "renounceOwnership",
      "outputs": [],
      "payable": false,
      "stateMutability": "nonpayable",
      "type": "function"
    },
    {
      "constant": false,
      "inputs": [],
      "name": "pause",
      "outputs": [],
      "payable": false,
      "stateMutability": "nonpayable",
      "type": "function"
    },
    {
      "constant": true,
      "inputs": [],
      "name": "owner",
      "outputs": [
        {
          "name": "",
          "type": "address"
        }
      ],
      "payable": false,
      "stateMutability": "view",
      "type": "function"
    },
    {
      "constant": true,
      "inputs": [],
      "name": "projectsCount",
      "outputs": [
        {
          "name": "",
          "type": "uint256"
        }
      ],
      "payable": false,
      "stateMutability": "view",
      "type": "function"
    },
    {
      "constant": false,
      "inputs": [
        {
          "name": "_newOwner",
          "type": "address"
        }
      ],
      "name": "transferOwnership",
      "outputs": [],
      "payable": false,
      "stateMutability": "nonpayable",
      "type": "function"
    },
    {
      "inputs": [],
      "payable": false,
      "stateMutability": "nonpayable",
      "type": "constructor"
    },
    {
      "anonymous": false,
      "inputs": [
        {
          "indexed": true,
          "name": "projectId",
          "type": "uint256"
        },
        {
          "indexed": true,
          "name": "name",
          "type": "string"
        },
        {
          "indexed": false,
          "name": "goalAmount",
          "type": "uint256"
        }
      ],
      "name": "NewProject",
      "type": "event"
    },
    {
      "anonymous": false,
      "inputs": [
        {
          "indexed": true,
          "name": "donor",
          "type": "address"
        },
        {
          "indexed": false,
          "name": "projectId",
          "type": "uint256"
        },
        {
          "indexed": false,
          "name": "amount",
          "type": "uint256"
        }
      ],
      "name": "Donated",
      "type": "event"
    },
    {
      "anonymous": false,
      "inputs": [
        {
          "indexed": true,
          "name": "from",
          "type": "address"
        },
        {
          "indexed": true,
          "name": "to",
          "type": "address"
        },
        {
          "indexed": false,
          "name": "tokens",
          "type": "uint256"
        }
      ],
      "name": "Withdraw",
      "type": "event"
    },
    {
      "anonymous": false,
      "inputs": [],
      "name": "Pause",
      "type": "event"
    },
    {
      "anonymous": false,
      "inputs": [],
      "name": "Unpause",
      "type": "event"
    },
    {
      "anonymous": false,
      "inputs": [
        {
          "indexed": true,
          "name": "previousOwner",
          "type": "address"
        }
      ],
      "name": "OwnershipRenounced",
      "type": "event"
    },
    {
      "anonymous": false,
      "inputs": [
        {
          "indexed": true,
          "name": "previousOwner",
          "type": "address"
        },
        {
          "indexed": true,
          "name": "newOwner",
          "type": "address"
        }
      ],
      "name": "OwnershipTransferred",
      "type": "event"
    },
    {
      "constant": false,
      "inputs": [
        {
          "name": "_id",
          "type": "uint256"
        }
      ],
      "name": "donate",
      "outputs": [],
      "payable": true,
      "stateMutability": "payable",
      "type": "function"
    },
    {
      "constant": false,
      "inputs": [
        {
          "name": "_id",
          "type": "uint256"
        }
      ],
      "name": "mineFor",
      "outputs": [],
      "payable": true,
      "stateMutability": "payable",
      "type": "function"
    },
    {
      "constant": false,
      "inputs": [
        {
          "name": "_projectId",
          "type": "uint256"
        },
        {
          "name": "_amountToWithdraw",
          "type": "uint256"
        }
      ],
      "name": "releaseDonation",
      "outputs": [
        {
          "name": "success",
          "type": "bool"
        }
      ],
      "payable": true,
      "stateMutability": "payable",
      "type": "function"
    }
  ],
  "bytecode": "0x608060405260008060146101000a81548160ff02191690831515021790555034801561002a57600080fd5b50336000806101000a81548173ffffffffffffffffffffffffffffffffffffffff021916908373ffffffffffffffffffffffffffffffffffffffff1602179055506109cc8061007a6000396000f3006080604052600436106100af576000357c0100000000000000000000000000000000000000000000000000000000900463ffffffff168063107046bd146100b45780633f4ba83a146101a25780635b09a602146101b95780635c975abb146101fb578063715018a61461022a5780638456cb59146102415780638da5cb5b14610258578063c73b302e146102af578063e420d17f146102da578063f14faf6f146102fa578063f2fde38b1461031a575b600080fd5b3480156100c057600080fd5b506100df6004803603810190808035906020019092919050505061035d565b60405180868152602001806020018581526020018481526020018373ffffffffffffffffffffffffffffffffffffffff1673ffffffffffffffffffffffffffffffffffffffff168152602001828103825286818151815260200191508051906020019080838360005b83811015610163578082015181840152602081019050610148565b50505050905090810190601f1680156101905780820380516001836020036101000a031916815260200191505b50965050505050505060405180910390f35b3480156101ae57600080fd5b506101b761044b565b005b6101e16004803603810190808035906020019092919080359060200190929190505050610509565b604051808215151515815260200191505060405180910390f35b34801561020757600080fd5b506102106105b9565b604051808215151515815260200191505060405180910390f35b34801561023657600080fd5b5061023f6105cc565b005b34801561024d57600080fd5b506102566106ce565b005b34801561026457600080fd5b5061026d61078e565b604051808273ffffffffffffffffffffffffffffffffffffffff1673ffffffffffffffffffffffffffffffffffffffff16815260200191505060405180910390f35b3480156102bb57600080fd5b506102c46107b3565b6040518082815260200191505060405180910390f35b6102f8600480360381019080803590602001909291905050506107b9565b005b610318600480360381019080803590602001909291905050506107fc565b005b34801561032657600080fd5b5061035b600480360381019080803573ffffffffffffffffffffffffffffffffffffffff16906020019092919050505061083f565b005b6001602052806000526040600020600091509050806000015490806001018054600181600116156101000203166002900480601f01602080910402602001604051908101604052809291908181526020018280546001816001161561010002031660029004801561040f5780601f106103e45761010080835404028352916020019161040f565b820191906000526020600020905b8154815290600101906020018083116103f257829003601f168201915b5050505050908060020154908060030154908060040160009054906101000a900473ffffffffffffffffffffffffffffffffffffffff16905085565b6000809054906101000a900473ffffffffffffffffffffffffffffffffffffffff1673ffffffffffffffffffffffffffffffffffffffff163373ffffffffffffffffffffffffffffffffffffffff161415156104a657600080fd5b600060149054906101000a900460ff1615156104c157600080fd5b60008060146101000a81548160ff0219169083151502179055507f7805862f689e2f13df9f062ff482ad3ad112aca9e0847911ed832e158c525b3360405160405180910390a1565b600080600060149054906101000a900460ff1615151561052857600080fd5b6001600085815260200190815260200160002090508060030154831115151561055057600080fd5b8060040160009054906101000a900473ffffffffffffffffffffffffffffffffffffffff1673ffffffffffffffffffffffffffffffffffffffff163373ffffffffffffffffffffffffffffffffffffffff161415156105ae57600080fd5b600191505092915050565b600060149054906101000a900460ff1681565b6000809054906101000a900473ffffffffffffffffffffffffffffffffffffffff1673ffffffffffffffffffffffffffffffffffffffff163373ffffffffffffffffffffffffffffffffffffffff1614151561062757600080fd5b6000809054906101000a900473ffffffffffffffffffffffffffffffffffffffff1673ffffffffffffffffffffffffffffffffffffffff167ff8df31144d9c2f0f6b59d69b8b98abd5459d07f2742c4df920b25aae33c6482060405160405180910390a260008060006101000a81548173ffffffffffffffffffffffffffffffffffffffff021916908373ffffffffffffffffffffffffffffffffffffffff160217905550565b6000809054906101000a900473ffffffffffffffffffffffffffffffffffffffff1673ffffffffffffffffffffffffffffffffffffffff163373ffffffffffffffffffffffffffffffffffffffff1614151561072957600080fd5b600060149054906101000a900460ff1615151561074557600080fd5b6001600060146101000a81548160ff0219169083151502179055507f6985a02210a168e66602d3235cb6db0e70f92b3ba4d376a33c0f3d9434bff62560405160405180910390a1565b6000809054906101000a900473ffffffffffffffffffffffffffffffffffffffff1681565b60025481565b600060149054906101000a900460ff161515156107d557600080fd5b34600160008381526020019081526020016000206003016000828254019250508190555050565b600060149054906101000a900460ff1615151561081857600080fd5b34600160008381526020019081526020016000206003016000828254019250508190555050565b6000809054906101000a900473ffffffffffffffffffffffffffffffffffffffff1673ffffffffffffffffffffffffffffffffffffffff163373ffffffffffffffffffffffffffffffffffffffff1614151561089a57600080fd5b6108a3816108a6565b50565b600073ffffffffffffffffffffffffffffffffffffffff168173ffffffffffffffffffffffffffffffffffffffff16141515156108e257600080fd5b8073ffffffffffffffffffffffffffffffffffffffff166000809054906101000a900473ffffffffffffffffffffffffffffffffffffffff1673ffffffffffffffffffffffffffffffffffffffff167f8be0079c531659141344cd1fd0a4f28419497f9722a3daafe3b4186f6b6457e060405160405180910390a3806000806101000a81548173ffffffffffffffffffffffffffffffffffffffff021916908373ffffffffffffffffffffffffffffffffffffffff160217905550505600a165627a7a7230582075197cb1118c4b826733f6d1b9ba04bbe0505df16ed411762d720a724da2a6560029",
  "source": "pragma solidity ^0.4.19;\n\nimport \"node_modules/openzeppelin-solidity/contracts/lifecycle/Pausable.sol\";\nimport \"contracts/BenevoToken.sol\";\nimport \"node_modules/openzeppelin-solidity/contracts/math/SafeMath.sol\";\n\ncontract BenevoProjects is Pausable { //To enable circuit breaker / emergency stop\n\n    event NewProject(uint indexed projectId, string indexed name, uint goalAmount);\n    event Donated(address indexed donor, uint projectId, uint amount);\n    event Withdraw(address indexed from, address indexed to, uint tokens);\n\n    struct Project {\n        uint id;\n        string name;\n        uint goalAmount;\n        uint currentAmount;\n        address ownerAddress;\n    }\n\n    mapping (uint => Project) public projects;\n\n    uint public projectsCount;\n\n    constructor() public{\n        \n    }\n\n    /** @dev Create a new project \n      * @param _name The name of the project\n      * @param _goalAmount Goal amount of BenevoToken to be donated\n    */\n    function _createProject(string _name, uint _goalAmount) private whenNotPaused returns(string){\n        projectsCount ++;\n        projects[projectsCount] = Project(projectsCount, _name, _goalAmount, 0, msg.sender);\n        emit NewProject(projectsCount, _name, _goalAmount);\n        return _name;\n    }\n\n    //Donate mined BenevoToken to the project\n    function donate(uint _id) public whenNotPaused payable {\n        projects[_id].currentAmount += msg.value;\n    }\n\n    //Directly mine for the project\n    function mineFor(uint _id) public whenNotPaused payable {\n        projects[_id].currentAmount += msg.value;\n    }\n\n    /** @dev Release the escrowed donation to the project owner \n      * @param _projectId Project ID\n      * @param _amountToWithdraw Amount of BenevoToken to be released\n    */\n    function releaseDonation(uint _projectId, uint _amountToWithdraw) public whenNotPaused payable returns (bool success){\n        Project project = projects[_projectId];\n        require(_amountToWithdraw <= project.currentAmount);\n        require(msg.sender == project.ownerAddress);\n        //projects[_id].currentAmount.sub(_amountToWithdraw);\n        //TODO\n        return true;\n    }\n}",
  "sourcePath": "/home/masaki/Downloads/benevoProjects/contracts/BenevoProjects.sol",
  "compiler": {
    "name": "solc",
    "version": "0.4.24+commit.e67f0147.Emscripten.clang"
  },
  "schemaVersion": "2.0.1",
  "updatedAt": "2018-08-05T05:57:05.098Z"
}